{"abi":[{"type":"function","name":"count","inputs":[],"outputs":[{"name":"","type":"uint256","internalType":"uint256"}],"stateMutability":"view"},{"type":"function","name":"create","inputs":[{"name":"owners","type":"address[]","internalType":"address[]"},{"name":"required","type":"uint256","internalType":"uint256"}],"outputs":[{"name":"","type":"address","internalType":"address"}],"stateMutability":"nonpayable"},{"type":"function","name":"multisigs","inputs":[{"name":"","type":"uint256","internalType":"uint256"}],"outputs":[{"name":"","type":"address","internalType":"address"}],"stateMutability":"view"},{"type":"event","name":"MultiSigCreated","inputs":[{"name":"multisig","type":"address","indexed":true,"internalType":"address"},{"name":"creator","type":"address","indexed":true,"internalType":"address"}],"anonymous":false}],"bytecode":{"object":"0x6080604052348015600e575f5ffd5b506125058061001c5f395ff3fe608060405234801561000f575f5ffd5b506004361061003f575f3560e01c806306661abd14610043578063d0fc278214610061578063f8f7380814610091575b5f5ffd5b61004b6100c1565b6040516100589190610225565b60405180910390f35b61007b60048036038101906100769190610279565b6100cc565b60405161008891906102e3565b60405180910390f35b6100ab60048036038101906100a69190610476565b610106565b6040516100b891906102e3565b60405180910390f35b5f5f80549050905090565b5f81815481106100da575f80fd5b905f5260205f20015f915054906101000a900473ffffffffffffffffffffffffffffffffffffffff1681565b5f5f838360405161011690610200565b610121929190610587565b604051809103905ff08015801561013a573d5f5f3e3d5ffd5b5090505f81908060018154018082558091505060019003905f5260205f20015f9091909190916101000a81548173ffffffffffffffffffffffffffffffffffffffff021916908373ffffffffffffffffffffffffffffffffffffffff1602179055503373ffffffffffffffffffffffffffffffffffffffff168173ffffffffffffffffffffffffffffffffffffffff167ff20750c68e2543324242bed7c2adb016c838c1fd6275d3e096ef6484237e485860405160405180910390a38091505092915050565b611f1a806105b683390190565b5f819050919050565b61021f8161020d565b82525050565b5f6020820190506102385f830184610216565b92915050565b5f604051905090565b5f5ffd5b5f5ffd5b6102588161020d565b8114610262575f5ffd5b50565b5f813590506102738161024f565b92915050565b5f6020828403121561028e5761028d610247565b5b5f61029b84828501610265565b91505092915050565b5f73ffffffffffffffffffffffffffffffffffffffff82169050919050565b5f6102cd826102a4565b9050919050565b6102dd816102c3565b82525050565b5f6020820190506102f65f8301846102d4565b92915050565b5f5ffd5b5f601f19601f8301169050919050565b7f4e487b71000000000000000000000000000000000000000000000000000000005f52604160045260245ffd5b61034682610300565b810181811067ffffffffffffffff8211171561036557610364610310565b5b80604052505050565b5f61037761023e565b9050610383828261033d565b919050565b5f67ffffffffffffffff8211156103a2576103a1610310565b5b602082029050602081019050919050565b5f5ffd5b6103c0816102c3565b81146103ca575f5ffd5b50565b5f813590506103db816103b7565b92915050565b5f6103f36103ee84610388565b61036e565b90508083825260208201905060208402830185811115610416576104156103b3565b5b835b8181101561043f578061042b88826103cd565b845260208401935050602081019050610418565b5050509392505050565b5f82601f83011261045d5761045c6102fc565b5b813561046d8482602086016103e1565b91505092915050565b5f5f6040838503121561048c5761048b610247565b5b5f83013567ffffffffffffffff8111156104a9576104a861024b565b5b6104b585828601610449565b92505060206104c685828601610265565b9150509250929050565b5f81519050919050565b5f82825260208201905092915050565b5f819050602082019050919050565b610502816102c3565b82525050565b5f61051383836104f9565b60208301905092915050565b5f602082019050919050565b5f610535826104d0565b61053f81856104da565b935061054a836104ea565b805f5b8381101561057a5781516105618882610508565b975061056c8361051f565b92505060018101905061054d565b5085935050505092915050565b5f6040820190508181035f83015261059f818561052b565b90506105ae6020830184610216565b939250505056fe608060405234801561000f575f5ffd5b50604051611f1a380380611f1a833981810160405281019061003191906104a4565b5f825111610074576040517f08c379a000000000000000000000000000000000000000000000000000000000815260040161006b90610558565b60405180910390fd5b5f81118015610084575081518111155b6100c3576040517f08c379a00000000000000000000000000000000000000000000000000000000081526004016100ba906105e6565b60405180910390fd5b5f5b82518110156102a7575f8382815181106100e2576100e1610604565b5b602002602001015190505f73ffffffffffffffffffffffffffffffffffffffff168173ffffffffffffffffffffffffffffffffffffffff160361015a576040517f08c379a00000000000000000000000000000000000000000000000000000000081526004016101519061067b565b60405180910390fd5b60035f8273ffffffffffffffffffffffffffffffffffffffff1673ffffffffffffffffffffffffffffffffffffffff1681526020019081526020015f205f9054906101000a900460ff16156101e4576040517f08c379a00000000000000000000000000000000000000000000000000000000081526004016101db906106e3565b60405180910390fd5b600160035f8373ffffffffffffffffffffffffffffffffffffffff1673ffffffffffffffffffffffffffffffffffffffff1681526020019081526020015f205f6101000a81548160ff021916908315150217905550600281908060018154018082558091505060019003905f5260205f20015f9091909190916101000a81548173ffffffffffffffffffffffffffffffffffffffff021916908373ffffffffffffffffffffffffffffffffffffffff1602179055505080806001019150506100c5565b50806004819055505050610701565b5f604051905090565b5f5ffd5b5f5ffd5b5f5ffd5b5f601f19601f8301169050919050565b7f4e487b71000000000000000000000000000000000000000000000000000000005f52604160045260245ffd5b610311826102cb565b810181811067ffffffffffffffff821117156103305761032f6102db565b5b80604052505050565b5f6103426102b6565b905061034e8282610308565b919050565b5f67ffffffffffffffff82111561036d5761036c6102db565b5b602082029050602081019050919050565b5f5ffd5b5f73ffffffffffffffffffffffffffffffffffffffff82169050919050565b5f6103ab82610382565b9050919050565b6103bb816103a1565b81146103c5575f5ffd5b50565b5f815190506103d6816103b2565b92915050565b5f6103ee6103e984610353565b610339565b905080838252602082019050602084028301858111156104115761041061037e565b5b835b8181101561043a578061042688826103c8565b845260208401935050602081019050610413565b5050509392505050565b5f82601f830112610458576104576102c7565b5b81516104688482602086016103dc565b91505092915050565b5f819050919050565b61048381610471565b811461048d575f5ffd5b50565b5f8151905061049e8161047a565b92915050565b5f5f604083850312156104ba576104b96102bf565b5b5f83015167ffffffffffffffff8111156104d7576104d66102c3565b5b6104e385828601610444565b92505060206104f485828601610490565b9150509250929050565b5f82825260208201905092915050565b7f6f776e6572206e6f7420757020746f20746872656520796574000000000000005f82015250565b5f6105426019836104fe565b915061054d8261050e565b602082019050919050565b5f6020820190508181035f83015261056f81610536565b9050919050565b7f6e756d626572206f66207265717569726564206f776e657273206e6f7420656e5f8201527f6f75676800000000000000000000000000000000000000000000000000000000602082015250565b5f6105d06024836104fe565b91506105db82610576565b604082019050919050565b5f6020820190508181035f8301526105fd816105c4565b9050919050565b7f4e487b71000000000000000000000000000000000000000000000000000000005f52603260045260245ffd5b7f796f75206765742073656e736520736f203f00000000000000000000000000005f82015250565b5f6106656012836104fe565b915061067082610631565b602082019050919050565b5f6020820190508181035f83015261069281610659565b9050919050565b7f6f776e657220697320616c7265616479206164646564000000000000000000005f82015250565b5f6106cd6016836104fe565b91506106d882610699565b602082019050919050565b5f6020820190508181035f8301526106fa816106c1565b9050919050565b61180c8061070e5f395ff3fe608060405260043610610089575f3560e01c806398cd65cc1161005857806398cd65cc146101d25780639ace38c2146101fa578063b759f95414610239578063dc8452cd14610261578063fe0d94c11461028b576100f4565b8063025e7c27146100f657806320c5429b146101325780632f54bf6e1461015a5780638253951a14610196576100f4565b366100f4575f3073ffffffffffffffffffffffffffffffffffffffff16346040516100b390610d75565b5f6040518083038185875af1925050503d805f81146100ed576040519150601f19603f3d011682016040523d82523d5f602084013e6100f2565b606091505b005b005b348015610101575f5ffd5b5061011c60048036038101906101179190610dc4565b6102b3565b6040516101299190610e2e565b60405180910390f35b34801561013d575f5ffd5b5061015860048036038101906101539190610dc4565b6102ee565b005b348015610165575f5ffd5b50610180600480360381019061017b9190610e71565b61052e565b60405161018d9190610eb6565b60405180910390f35b3480156101a1575f5ffd5b506101bc60048036038101906101b79190610ecf565b61054b565b6040516101c99190610eb6565b60405180910390f35b3480156101dd575f5ffd5b506101f860048036038101906101f39190610f6e565b610575565b005b348015610205575f5ffd5b50610220600480360381019061021b9190610dc4565b61072c565b604051610230949392919061105e565b60405180910390f35b348015610244575f5ffd5b5061025f600480360381019061025a9190610dc4565b610817565b005b34801561026c575f5ffd5b50610275610a5a565b60405161028291906110a8565b60405180910390f35b348015610296575f5ffd5b506102b160048036038101906102ac9190610dc4565b610a60565b005b600281815481106102c2575f80fd5b905f5260205f20015f915054906101000a900473ffffffffffffffffffffffffffffffffffffffff1681565b60035f3373ffffffffffffffffffffffffffffffffffffffff1673ffffffffffffffffffffffffffffffffffffffff1681526020019081526020015f205f9054906101000a900460ff16610377576040517f08c379a000000000000000000000000000000000000000000000000000000000815260040161036e9061111b565b60405180910390fd5b805f8054905081106103be576040517f08c379a00000000000000000000000000000000000000000000000000000000081526004016103b590611183565b60405180910390fd5b815f81815481106103d2576103d16111a1565b5b905f5260205f2090600402016003015f9054906101000a900460ff161561042e576040517f08c379a000000000000000000000000000000000000000000000000000000000815260040161042590611218565b60405180910390fd5b60015f8481526020019081526020015f205f3373ffffffffffffffffffffffffffffffffffffffff1673ffffffffffffffffffffffffffffffffffffffff1681526020019081526020015f205f9054906101000a900460ff166104c6576040517f08c379a00000000000000000000000000000000000000000000000000000000081526004016104bd90611280565b60405180910390fd5b5f60015f8581526020019081526020015f205f3373ffffffffffffffffffffffffffffffffffffffff1673ffffffffffffffffffffffffffffffffffffffff1681526020019081526020015f205f6101000a81548160ff021916908315150217905550505050565b6003602052805f5260405f205f915054906101000a900460ff1681565b6001602052815f5260405f20602052805f5260405f205f915091509054906101000a900460ff1681565b60035f3373ffffffffffffffffffffffffffffffffffffffff1673ffffffffffffffffffffffffffffffffffffffff1681526020019081526020015f205f9054906101000a900460ff166105fe576040517f08c379a00000000000000000000000000000000000000000000000000000000081526004016105f59061111b565b60405180910390fd5b5f60405180608001604052808673ffffffffffffffffffffffffffffffffffffffff16815260200185815260200184848080601f0160208091040260200160405190810160405280939291908181526020018383808284375f81840152601f19601f8201169050808301925050505050505081526020015f1515815250908060018154018082558091505060019003905f5260205f2090600402015f909190919091505f820151815f015f6101000a81548173ffffffffffffffffffffffffffffffffffffffff021916908373ffffffffffffffffffffffffffffffffffffffff16021790555060208201518160010155604082015181600201908161070491906114d9565b506060820151816003015f6101000a81548160ff021916908315150217905550505050505050565b5f818154811061073a575f80fd5b905f5260205f2090600402015f91509050805f015f9054906101000a900473ffffffffffffffffffffffffffffffffffffffff1690806001015490806002018054610784906112f8565b80601f01602080910402602001604051908101604052809291908181526020018280546107b0906112f8565b80156107fb5780601f106107d2576101008083540402835291602001916107fb565b820191905f5260205f20905b8154815290600101906020018083116107de57829003601f168201915b505050505090806003015f9054906101000a900460ff16905084565b60035f3373ffffffffffffffffffffffffffffffffffffffff1673ffffffffffffffffffffffffffffffffffffffff1681526020019081526020015f205f9054906101000a900460ff166108a0576040517f08c379a00000000000000000000000000000000000000000000000000000000081526004016108979061111b565b60405180910390fd5b805f8054905081106108e7576040517f08c379a00000000000000000000000000000000000000000000000000000000081526004016108de90611183565b60405180910390fd5b8160015f8281526020019081526020015f205f3373ffffffffffffffffffffffffffffffffffffffff1673ffffffffffffffffffffffffffffffffffffffff1681526020019081526020015f205f9054906101000a900460ff1615610981576040517f08c379a0000000000000000000000000000000000000000000000000000000008152600401610978906115f2565b60405180910390fd5b825f8181548110610995576109946111a1565b5b905f5260205f2090600402016003015f9054906101000a900460ff16156109f1576040517f08c379a00000000000000000000000000000000000000000000000000000000081526004016109e890611218565b60405180910390fd5b6001805f8681526020019081526020015f205f3373ffffffffffffffffffffffffffffffffffffffff1673ffffffffffffffffffffffffffffffffffffffff1681526020019081526020015f205f6101000a81548160ff02191690831515021790555050505050565b60045481565b805f805490508110610aa7576040517f08c379a0000000000000000000000000000000000000000000000000000000008152600401610a9e90611183565b60405180910390fd5b815f8181548110610abb57610aba6111a1565b5b905f5260205f2090600402016003015f9054906101000a900460ff1615610b17576040517f08c379a0000000000000000000000000000000000000000000000000000000008152600401610b0e90611218565b60405180910390fd5b600454610b2384610c7c565b1015610b64576040517f08c379a0000000000000000000000000000000000000000000000000000000008152600401610b5b9061165a565b60405180910390fd5b5f5f8481548110610b7857610b776111a1565b5b905f5260205f20906004020190506001816003015f6101000a81548160ff0219169083151502179055505f815f015f9054906101000a900473ffffffffffffffffffffffffffffffffffffffff1673ffffffffffffffffffffffffffffffffffffffff16826001015483600201604051610bf291906116f8565b5f6040518083038185875af1925050503d805f8114610c2c576040519150601f19603f3d011682016040523d82523d5f602084013e610c31565b606091505b5050905080610c75576040517f08c379a0000000000000000000000000000000000000000000000000000000008152600401610c6c90611758565b60405180910390fd5b5050505050565b5f5f5b600280549050811015610d425760015f8481526020019081526020015f205f60028381548110610cb257610cb16111a1565b5b905f5260205f20015f9054906101000a900473ffffffffffffffffffffffffffffffffffffffff1673ffffffffffffffffffffffffffffffffffffffff1673ffffffffffffffffffffffffffffffffffffffff1681526020019081526020015f205f9054906101000a900460ff1615610d3557600182610d3291906117a3565b91505b8080600101915050610c7f565b50919050565b5f81905092915050565b50565b5f610d605f83610d48565b9150610d6b82610d52565b5f82019050919050565b5f610d7f82610d55565b9150819050919050565b5f5ffd5b5f5ffd5b5f819050919050565b610da381610d91565b8114610dad575f5ffd5b50565b5f81359050610dbe81610d9a565b92915050565b5f60208284031215610dd957610dd8610d89565b5b5f610de684828501610db0565b91505092915050565b5f73ffffffffffffffffffffffffffffffffffffffff82169050919050565b5f610e1882610def565b9050919050565b610e2881610e0e565b82525050565b5f602082019050610e415f830184610e1f565b92915050565b610e5081610e0e565b8114610e5a575f5ffd5b50565b5f81359050610e6b81610e47565b92915050565b5f60208284031215610e8657610e85610d89565b5b5f610e9384828501610e5d565b91505092915050565b5f8115159050919050565b610eb081610e9c565b82525050565b5f602082019050610ec95f830184610ea7565b92915050565b5f5f60408385031215610ee557610ee4610d89565b5b5f610ef285828601610db0565b9250506020610f0385828601610e5d565b9150509250929050565b5f5ffd5b5f5ffd5b5f5ffd5b5f5f83601f840112610f2e57610f2d610f0d565b5b8235905067ffffffffffffffff811115610f4b57610f4a610f11565b5b602083019150836001820283011115610f6757610f66610f15565b5b9250929050565b5f5f5f5f60608587031215610f8657610f85610d89565b5b5f610f9387828801610e5d565b9450506020610fa487828801610db0565b935050604085013567ffffffffffffffff811115610fc557610fc4610d8d565b5b610fd187828801610f19565b925092505092959194509250565b610fe881610d91565b82525050565b5f81519050919050565b5f82825260208201905092915050565b8281835e5f83830152505050565b5f601f19601f8301169050919050565b5f61103082610fee565b61103a8185610ff8565b935061104a818560208601611008565b61105381611016565b840191505092915050565b5f6080820190506110715f830187610e1f565b61107e6020830186610fdf565b81810360408301526110908185611026565b905061109f6060830184610ea7565b95945050505050565b5f6020820190506110bb5f830184610fdf565b92915050565b5f82825260208201905092915050565b7f6e6f74206f776e657200000000000000000000000000000000000000000000005f82015250565b5f6111056009836110c1565b9150611110826110d1565b602082019050919050565b5f6020820190508181035f830152611132816110f9565b9050919050565b7f747820646f6573206e6f742065786973740000000000000000000000000000005f82015250565b5f61116d6011836110c1565b915061117882611139565b602082019050919050565b5f6020820190508181035f83015261119a81611161565b9050919050565b7f4e487b71000000000000000000000000000000000000000000000000000000005f52603260045260245ffd5b7f747820616c7265616479206578637574656400000000000000000000000000005f82015250565b5f6112026012836110c1565b915061120d826111ce565b602082019050919050565b5f6020820190508181035f83015261122f816111f6565b9050919050565b7f7478206e6f7420617070726f76656400000000000000000000000000000000005f82015250565b5f61126a600f836110c1565b915061127582611236565b602082019050919050565b5f6020820190508181035f8301526112978161125e565b9050919050565b7f4e487b71000000000000000000000000000000000000000000000000000000005f52604160045260245ffd5b7f4e487b71000000000000000000000000000000000000000000000000000000005f52602260045260245ffd5b5f600282049050600182168061130f57607f821691505b602082108103611322576113216112cb565b5b50919050565b5f819050815f5260205f209050919050565b5f6020601f8301049050919050565b5f82821b905092915050565b5f600883026113847fffffffffffffffffffffffffffffffffffffffffffffffffffffffffffffffff82611349565b61138e8683611349565b95508019841693508086168417925050509392505050565b5f819050919050565b5f6113c96113c46113bf84610d91565b6113a6565b610d91565b9050919050565b5f819050919050565b6113e2836113af565b6113f66113ee826113d0565b848454611355565b825550505050565b5f5f905090565b61140d6113fe565b6114188184846113d9565b505050565b5f5b8281101561143e576114335f828401611405565b60018101905061141f565b505050565b601f82111561149157828211156114905761145d81611328565b6114668361133a565b61146f8561133a565b602086101561147c575f90505b80830161148b8284038261141d565b505050505b5b505050565b5f82821c905092915050565b5f6114b15f1984600802611496565b1980831691505092915050565b5f6114c983836114a2565b9150826002028217905092915050565b6114e282610fee565b67ffffffffffffffff8111156114fb576114fa61129e565b5b61150582546112f8565b611510828285611443565b5f60209050601f831160018114611541575f841561152f578287015190505b61153985826114be565b8655506115a0565b601f19841661154f86611328565b5f5b8281101561157657848901518255600182019150602085019450602081019050611551565b86831015611593578489015161158f601f8916826114a2565b8355505b6001600288020188555050505b505050505050565b7f747820616c726561647920617070726f766564000000000000000000000000005f82015250565b5f6115dc6013836110c1565b91506115e7826115a8565b602082019050919050565b5f6020820190508181035f830152611609816115d0565b9050919050565b7f617070726f76616c73203c2072657175697265640000000000000000000000005f82015250565b5f6116446014836110c1565b915061164f82611610565b602082019050919050565b5f6020820190508181035f83015261167181611638565b9050919050565b5f8154611684816112f8565b61168e8186610d48565b9450600182165f81146116a857600181146116bd576116ef565b60ff19831686528115158202860193506116ef565b6116c685611328565b5f5b838110156116e7578154818901526001820191506020810190506116c8565b838801955050505b50505092915050565b5f6117038284611678565b915081905092915050565b7f7478206661696c656400000000000000000000000000000000000000000000005f82015250565b5f6117426009836110c1565b915061174d8261170e565b602082019050919050565b5f6020820190508181035f83015261176f81611736565b9050919050565b7f4e487b71000000000000000000000000000000000000000000000000000000005f52601160045260245ffd5b5f6117ad82610d91565b91506117b883610d91565b92508282019050808211156117d0576117cf611776565b5b9291505056fea2646970667358221220c1bba029ed476b55829b32a36b9673a3eb51c8cfd37540f06e17b41c56bf7a4464736f6c63430008210033a26469706673582212207d1e69728b0fef965ad345eebee9fa06ed46e72f4f4036431bbb34f83c1114f564736f6c63430008210033","linkReferences":{}},"methodIdentifiers":{"count()":"06661abd","create(address[],uint256)":"f8f73808","multisigs(uint256)":"d0fc2782"},"id":0}