{
  "_format": "hh-sol-artifact-1",
  "contractName": "SchoolManagement",
  "sourceName": "contracts/SchoolManagement.sol",
  "abi": [
    {
      "inputs": [],
      "stateMutability": "nonpayable",
      "type": "constructor"
    },
    {
      "anonymous": false,
      "inputs": [
        {
          "indexed": false,
          "internalType": "uint256",
          "name": "studentId",
          "type": "uint256"
        },
        {
          "indexed": false,
          "internalType": "uint256",
          "name": "amount",
          "type": "uint256"
        },
        {
          "indexed": false,
          "internalType": "uint256",
          "name": "timestamp",
          "type": "uint256"
        }
      ],
      "name": "FeesPaid",
      "type": "event"
    },
    {
      "anonymous": false,
      "inputs": [
        {
          "indexed": false,
          "internalType": "uint256",
          "name": "staffId",
          "type": "uint256"
        },
        {
          "indexed": false,
          "internalType": "uint256",
          "name": "amount",
          "type": "uint256"
        },
        {
          "indexed": false,
          "internalType": "uint256",
          "name": "timestamp",
          "type": "uint256"
        }
      ],
      "name": "StaffPaid",
      "type": "event"
    },
    {
      "anonymous": false,
      "inputs": [
        {
          "indexed": false,
          "internalType": "uint256",
          "name": "staffId",
          "type": "uint256"
        },
        {
          "indexed": false,
          "internalType": "address",
          "name": "wallet",
          "type": "address"
        },
        {
          "indexed": false,
          "internalType": "string",
          "name": "name",
          "type": "string"
        }
      ],
      "name": "StaffRegistered",
      "type": "event"
    },
    {
      "anonymous": false,
      "inputs": [
        {
          "indexed": false,
          "internalType": "uint256",
          "name": "studentId",
          "type": "uint256"
        },
        {
          "indexed": false,
          "internalType": "address",
          "name": "wallet",
          "type": "address"
        },
        {
          "indexed": false,
          "internalType": "string",
          "name": "name",
          "type": "string"
        },
        {
          "indexed": false,
          "internalType": "uint256",
          "name": "level",
          "type": "uint256"
        }
      ],
      "name": "StudentRegistered",
      "type": "event"
    },
    {
      "inputs": [],
      "name": "admin",
      "outputs": [
        {
          "internalType": "address",
          "name": "",
          "type": "address"
        }
      ],
      "stateMutability": "view",
      "type": "function"
    },
    {
      "inputs": [
        {
          "internalType": "uint256",
          "name": "",
          "type": "uint256"
        }
      ],
      "name": "allStaffIds",
      "outputs": [
        {
          "internalType": "uint256",
          "name": "",
          "type": "uint256"
        }
      ],
      "stateMutability": "view",
      "type": "function"
    },
    {
      "inputs": [
        {
          "internalType": "uint256",
          "name": "",
          "type": "uint256"
        }
      ],
      "name": "allStudentIds",
      "outputs": [
        {
          "internalType": "uint256",
          "name": "",
          "type": "uint256"
        }
      ],
      "stateMutability": "view",
      "type": "function"
    },
    {
      "inputs": [
        {
          "internalType": "uint256",
          "name": "",
          "type": "uint256"
        }
      ],
      "name": "feeSchedule",
      "outputs": [
        {
          "internalType": "uint256",
          "name": "",
          "type": "uint256"
        }
      ],
      "stateMutability": "view",
      "type": "function"
    },
    {
      "inputs": [],
      "name": "getAllStaffIds",
      "outputs": [
        {
          "internalType": "uint256[]",
          "name": "",
          "type": "uint256[]"
        }
      ],
      "stateMutability": "view",
      "type": "function"
    },
    {
      "inputs": [],
      "name": "getAllStudentIds",
      "outputs": [
        {
          "internalType": "uint256[]",
          "name": "",
          "type": "uint256[]"
        }
      ],
      "stateMutability": "view",
      "type": "function"
    },
    {
      "inputs": [
        {
          "internalType": "uint256",
          "name": "_level",
          "type": "uint256"
        }
      ],
      "name": "getFeeForLevel",
      "outputs": [
        {
          "internalType": "uint256",
          "name": "",
          "type": "uint256"
        }
      ],
      "stateMutability": "view",
      "type": "function"
    },
    {
      "inputs": [
        {
          "internalType": "uint256",
          "name": "_id",
          "type": "uint256"
        }
      ],
      "name": "getStaff",
      "outputs": [
        {
          "internalType": "uint256",
          "name": "id",
          "type": "uint256"
        },
        {
          "internalType": "address",
          "name": "wallet",
          "type": "address"
        },
        {
          "internalType": "string",
          "name": "name",
          "type": "string"
        },
        {
          "internalType": "uint256",
          "name": "teachingLevel",
          "type": "uint256"
        },
        {
          "internalType": "bool",
          "name": "isQualified",
          "type": "bool"
        },
        {
          "internalType": "uint256",
          "name": "salary",
          "type": "uint256"
        },
        {
          "internalType": "bool",
          "name": "salaryPaid",
          "type": "bool"
        },
        {
          "internalType": "uint256",
          "name": "lastPaidAt",
          "type": "uint256"
        }
      ],
      "stateMutability": "view",
      "type": "function"
    },
    {
      "inputs": [
        {
          "internalType": "uint256",
          "name": "_id",
          "type": "uint256"
        }
      ],
      "name": "getStudent",
      "outputs": [
        {
          "internalType": "uint256",
          "name": "id",
          "type": "uint256"
        },
        {
          "internalType": "address",
          "name": "wallet",
          "type": "address"
        },
        {
          "internalType": "string",
          "name": "name",
          "type": "string"
        },
        {
          "internalType": "uint256",
          "name": "level",
          "type": "uint256"
        },
        {
          "internalType": "bool",
          "name": "feesPaid",
          "type": "bool"
        },
        {
          "internalType": "uint256",
          "name": "feesPaidAt",
          "type": "uint256"
        },
        {
          "internalType": "uint256",
          "name": "registeredAt",
          "type": "uint256"
        }
      ],
      "stateMutability": "view",
      "type": "function"
    },
    {
      "inputs": [],
      "name": "nextStaffId",
      "outputs": [
        {
          "internalType": "uint256",
          "name": "",
          "type": "uint256"
        }
      ],
      "stateMutability": "view",
      "type": "function"
    },
    {
      "inputs": [],
      "name": "nextStudentId",
      "outputs": [
        {
          "internalType": "uint256",
          "name": "",
          "type": "uint256"
        }
      ],
      "stateMutability": "view",
      "type": "function"
    },
    {
      "inputs": [
        {
          "internalType": "uint256",
          "name": "_studentId",
          "type": "uint256"
        }
      ],
      "name": "payFees",
      "outputs": [],
      "stateMutability": "payable",
      "type": "function"
    },
    {
      "inputs": [
        {
          "internalType": "uint256",
          "name": "_staffId",
          "type": "uint256"
        }
      ],
      "name": "payStaff",
      "outputs": [],
      "stateMutability": "nonpayable",
      "type": "function"
    },
    {
      "inputs": [
        {
          "internalType": "address",
          "name": "_wallet",
          "type": "address"
        },
        {
          "internalType": "string",
          "name": "_name",
          "type": "string"
        },
        {
          "internalType": "uint256",
          "name": "_teachingLevel",
          "type": "uint256"
        }
      ],
      "name": "registerStaff",
      "outputs": [
        {
          "internalType": "uint256",
          "name": "",
          "type": "uint256"
        }
      ],
      "stateMutability": "nonpayable",
      "type": "function"
    },
    {
      "inputs": [
        {
          "internalType": "address",
          "name": "_wallet",
          "type": "address"
        },
        {
          "internalType": "string",
          "name": "_name",
          "type": "string"
        },
        {
          "internalType": "uint256",
          "name": "_level",
          "type": "uint256"
        }
      ],
      "name": "registerStudent",
      "outputs": [
        {
          "internalType": "uint256",
          "name": "",
          "type": "uint256"
        }
      ],
      "stateMutability": "nonpayable",
      "type": "function"
    },
    {
      "inputs": [
        {
          "internalType": "uint256",
          "name": "",
          "type": "uint256"
        }
      ],
      "name": "staffById",
      "outputs": [
        {
          "internalType": "uint256",
          "name": "id",
          "type": "uint256"
        },
        {
          "internalType": "address",
          "name": "wallet",
          "type": "address"
        },
        {
          "internalType": "string",
          "name": "name",
          "type": "string"
        },
        {
          "internalType": "uint256",
          "name": "teachingLevel",
          "type": "uint256"
        },
        {
          "internalType": "bool",
          "name": "isQualified",
          "type": "bool"
        },
        {
          "internalType": "uint256",
          "name": "salary",
          "type": "uint256"
        },
        {
          "internalType": "bool",
          "name": "salaryPaid",
          "type": "bool"
        },
        {
          "internalType": "uint256",
          "name": "lastPaidAt",
          "type": "uint256"
        }
      ],
      "stateMutability": "view",
      "type": "function"
    },
    {
      "inputs": [
        {
          "internalType": "uint256",
          "name": "",
          "type": "uint256"
        }
      ],
      "name": "studentsById",
      "outputs": [
        {
          "internalType": "uint256",
          "name": "id",
          "type": "uint256"
        },
        {
          "internalType": "address",
          "name": "wallet",
          "type": "address"
        },
        {
          "internalType": "string",
          "name": "name",
          "type": "string"
        },
        {
          "internalType": "uint256",
          "name": "level",
          "type": "uint256"
        },
        {
          "internalType": "bool",
          "name": "feesPaid",
          "type": "bool"
        },
        {
          "internalType": "uint256",
          "name": "feesPaidAt",
          "type": "uint256"
        },
        {
          "internalType": "uint256",
          "name": "registeredAt",
          "type": "uint256"
        }
      ],
      "stateMutability": "view",
      "type": "function"
    }
  ],
  "bytecode": "0x6080604052348015600f57600080fd5b50336000806101000a81548173ffffffffffffffffffffffffffffffffffffffff021916908373ffffffffffffffffffffffffffffffffffffffff16021790555060018081905550600160028190555067016345785d8a0000600760006064815260200190815260200160002081905550670214e8348c4f00006007600060c88152602001908152602001600020819055506702c68af0bb1400006007600061012c8152602001908152602001600020819055506703782dace9d900006007600061019081526020019081526020016000208190555061265a806100f46000396000f3fe6080604052600436106100fe5760003560e01c8063834d336c11610095578063d47f9d1311610064578063d47f9d131461036e578063ee59dd28146103ab578063f4def44b146103e8578063f851a4401461042c578063fb5a03ba14610457576100fe565b8063834d336c146102c45780639ecafb1f146102ef578063a8ca251b14610318578063c8cdf07414610343576100fe565b8063400757fa116100d1578063400757fa146101c4578063466df3cc14610201578063642f91631461023e5780636e9bac2a14610281576100fe565b80630e808188146101035780633084d7351461014057806335ceec0f1461015c5780633fbc17f214610199575b600080fd5b34801561010f57600080fd5b5061012a60048036038101906101259190611623565b61049b565b604051610137919061165f565b60405180910390f35b61015a60048036038101906101559190611623565b6104bf565b005b34801561016857600080fd5b50610183600480360381019061017e9190611623565b61062e565b604051610190919061165f565b60405180910390f35b3480156101a557600080fd5b506101ae610646565b6040516101bb919061165f565b60405180910390f35b3480156101d057600080fd5b506101eb60048036038101906101e6919061181e565b61064c565b6040516101f8919061165f565b60405180910390f35b34801561020d57600080fd5b5061022860048036038101906102239190611623565b6109e1565b604051610235919061165f565b60405180910390f35b34801561024a57600080fd5b5061026560048036038101906102609190611623565b610a05565b6040516102789796959493929190611936565b60405180910390f35b34801561028d57600080fd5b506102a860048036038101906102a39190611623565b610b63565b6040516102bb9796959493929190611936565b60405180910390f35b3480156102d057600080fd5b506102d9610c5a565b6040516102e69190611a6a565b60405180910390f35b3480156102fb57600080fd5b5061031660048036038101906103119190611623565b610cb2565b005b34801561032457600080fd5b5061032d610f75565b60405161033a919061165f565b60405180910390f35b34801561034f57600080fd5b50610358610f7b565b6040516103659190611a6a565b60405180910390f35b34801561037a57600080fd5b506103956004803603810190610390919061181e565b610fd3565b6040516103a2919061165f565b60405180910390f35b3480156103b757600080fd5b506103d260048036038101906103cd9190611623565b61131b565b6040516103df919061165f565b60405180910390f35b3480156103f457600080fd5b5061040f600480360381019061040a9190611623565b611338565b604051610423989796959493929190611a8c565b60405180910390f35b34801561043857600080fd5b506104416114ab565b60405161044e9190611b11565b60405180910390f35b34801561046357600080fd5b5061047e60048036038101906104799190611623565b6114cf565b604051610492989796959493929190611a8c565b60405180910390f35b600581815481106104ab57600080fd5b906000526020600020016000915090505481565b6000600360008381526020019081526020016000209050600081600001540361051d576040517f08c379a000000000000000000000000000000000000000000000000000000000815260040161051490611b78565b60405180910390fd5b8060040160009054906101000a900460ff161561056f576040517f08c379a000000000000000000000000000000000000000000000000000000000815260040161056690611be4565b60405180910390fd5b6007600082600301548152602001908152602001600020543410156105c9576040517f08c379a00000000000000000000000000000000000000000000000000000000081526004016105c090611c76565b60405180910390fd5b60018160040160006101000a81548160ff0219169083151502179055504281600501819055507f8d16c35cb3f8e5991a77789a89dc46ece8b051dfc1ee588132a67a774304185b82344260405161062293929190611c96565b60405180910390a15050565b60076020528060005260406000206000915090505481565b60025481565b60008060009054906101000a900473ffffffffffffffffffffffffffffffffffffffff1673ffffffffffffffffffffffffffffffffffffffff163373ffffffffffffffffffffffffffffffffffffffff16146106dd576040517f08c379a00000000000000000000000000000000000000000000000000000000081526004016106d490611d19565b60405180910390fd5b600073ffffffffffffffffffffffffffffffffffffffff168473ffffffffffffffffffffffffffffffffffffffff160361074c576040517f08c379a000000000000000000000000000000000000000000000000000000000815260040161074390611d85565b60405180910390fd5b6000835111610790576040517f08c379a000000000000000000000000000000000000000000000000000000000815260040161078790611df1565b60405180910390fd5b606482148061079f575060c882145b806107ab575061012c82145b806107b7575061019082145b6107f6576040517f08c379a00000000000000000000000000000000000000000000000000000000081526004016107ed90611e83565b60405180910390fd5b600060025490506002600081548092919061081090611ed2565b91905055506000600260076000868152602001908152602001600020546108379190611f1a565b905060006040518061010001604052808481526020018873ffffffffffffffffffffffffffffffffffffffff1681526020018781526020018681526020016001151581526020018381526020016000151581526020016000815250905080600460008581526020019081526020016000206000820151816000015560208201518160010160006101000a81548173ffffffffffffffffffffffffffffffffffffffff021916908373ffffffffffffffffffffffffffffffffffffffff160217905550604082015181600201908161090e9190612168565b506060820151816003015560808201518160040160006101000a81548160ff02191690831515021790555060a0820151816005015560c08201518160060160006101000a81548160ff02191690831515021790555060e0820151816007015590505060068390806001815401808255809150506001900390600052602060002001600090919091909150557f91c3c02cdf0d76fd03ea8906129806200ff1f25ac555f13c4d4ed85c6b9659758388886040516109cc9392919061223a565b60405180910390a18293505050509392505050565b600681815481106109f157600080fd5b906000526020600020016000915090505481565b60008060606000806000806000600360008a815260200190815260200160002090506000816000015403610a6e576040517f08c379a0000000000000000000000000000000000000000000000000000000008152600401610a65906122c4565b60405180910390fd5b80600001548160010160009054906101000a900473ffffffffffffffffffffffffffffffffffffffff168260020183600301548460040160009054906101000a900460ff1685600501548660060154848054610ac990611f8b565b80601f0160208091040260200160405190810160405280929190818152602001828054610af590611f8b565b8015610b425780601f10610b1757610100808354040283529160200191610b42565b820191906000526020600020905b815481529060010190602001808311610b2557829003601f168201915b50505050509450975097509750975097509750975050919395979092949650565b60036020528060005260406000206000915090508060000154908060010160009054906101000a900473ffffffffffffffffffffffffffffffffffffffff1690806002018054610bb290611f8b565b80601f0160208091040260200160405190810160405280929190818152602001828054610bde90611f8b565b8015610c2b5780601f10610c0057610100808354040283529160200191610c2b565b820191906000526020600020905b815481529060010190602001808311610c0e57829003601f168201915b5050505050908060030154908060040160009054906101000a900460ff16908060050154908060060154905087565b60606005805480602002602001604051908101604052809291908181526020018280548015610ca857602002820191906000526020600020905b815481526020019060010190808311610c94575b5050505050905090565b60008054906101000a900473ffffffffffffffffffffffffffffffffffffffff1673ffffffffffffffffffffffffffffffffffffffff163373ffffffffffffffffffffffffffffffffffffffff1614610d40576040517f08c379a0000000000000000000000000000000000000000000000000000000008152600401610d3790611d19565b60405180910390fd5b60006004600083815260200190815260200160002090506000816000015403610d9e576040517f08c379a0000000000000000000000000000000000000000000000000000000008152600401610d9590612330565b60405180910390fd5b8060060160009054906101000a900460ff1615610df0576040517f08c379a0000000000000000000000000000000000000000000000000000000008152600401610de79061239c565b60405180910390fd5b8060050154471015610e37576040517f08c379a0000000000000000000000000000000000000000000000000000000008152600401610e2e90612408565b60405180910390fd5b60008160010160009054906101000a900473ffffffffffffffffffffffffffffffffffffffff1673ffffffffffffffffffffffffffffffffffffffff168260050154604051610e8590612459565b60006040518083038185875af1925050503d8060008114610ec2576040519150601f19603f3d011682016040523d82523d6000602084013e610ec7565b606091505b5050905080610f0b576040517f08c379a0000000000000000000000000000000000000000000000000000000008152600401610f02906124ba565b60405180910390fd5b60018260060160006101000a81548160ff0219169083151502179055504282600701819055507fe5972e6bc47efee6d3101eaf40220fca388e32d2b40d30965c983b395eeb266083836005015442604051610f6893929190611c96565b60405180910390a1505050565b60015481565b60606006805480602002602001604051908101604052809291908181526020018280548015610fc957602002820191906000526020600020905b815481526020019060010190808311610fb5575b5050505050905090565b60008060009054906101000a900473ffffffffffffffffffffffffffffffffffffffff1673ffffffffffffffffffffffffffffffffffffffff163373ffffffffffffffffffffffffffffffffffffffff1614611064576040517f08c379a000000000000000000000000000000000000000000000000000000000815260040161105b90611d19565b60405180910390fd5b600073ffffffffffffffffffffffffffffffffffffffff168473ffffffffffffffffffffffffffffffffffffffff16036110d3576040517f08c379a00000000000000000000000000000000000000000000000000000000081526004016110ca90611d85565b60405180910390fd5b6000835111611117576040517f08c379a000000000000000000000000000000000000000000000000000000000815260040161110e90611df1565b60405180910390fd5b6064821480611126575060c882145b80611132575061012c82145b8061113e575061019082145b61117d576040517f08c379a00000000000000000000000000000000000000000000000000000000081526004016111749061254c565b60405180910390fd5b600060015490506001600081548092919061119790611ed2565b919050555060006040518060e001604052808381526020018773ffffffffffffffffffffffffffffffffffffffff1681526020018681526020018581526020016000151581526020016000815260200142815250905080600360008481526020019081526020016000206000820151816000015560208201518160010160006101000a81548173ffffffffffffffffffffffffffffffffffffffff021916908373ffffffffffffffffffffffffffffffffffffffff16021790555060408201518160020190816112679190612168565b506060820151816003015560808201518160040160006101000a81548160ff02191690831515021790555060a0820151816005015560c0820151816006015590505060058290806001815401808255809150506001900390600052602060002001600090919091909150557fa7c2e169c8874868dbf647ce20f0afb2d8fdf785b74eee35bb72b00d475413ac82878787604051611307949392919061256c565b60405180910390a181925050509392505050565b600060076000838152602001908152602001600020549050919050565b6000806060600080600080600080600460008b8152602001908152602001600020905060008160000154036113a2576040517f08c379a000000000000000000000000000000000000000000000000000000000815260040161139990612604565b60405180910390fd5b80600001548160010160009054906101000a900473ffffffffffffffffffffffffffffffffffffffff168260020183600301548460040160009054906101000a900460ff1685600501548660060160009054906101000a900460ff16876007015485805461140f90611f8b565b80601f016020809104026020016040519081016040528092919081815260200182805461143b90611f8b565b80156114885780601f1061145d57610100808354040283529160200191611488565b820191906000526020600020905b81548152906001019060200180831161146b57829003601f168201915b505050505095509850985098509850985098509850985050919395975091939597565b60008054906101000a900473ffffffffffffffffffffffffffffffffffffffff1681565b60046020528060005260406000206000915090508060000154908060010160009054906101000a900473ffffffffffffffffffffffffffffffffffffffff169080600201805461151e90611f8b565b80601f016020809104026020016040519081016040528092919081815260200182805461154a90611f8b565b80156115975780601f1061156c57610100808354040283529160200191611597565b820191906000526020600020905b81548152906001019060200180831161157a57829003601f168201915b5050505050908060030154908060040160009054906101000a900460ff16908060050154908060060160009054906101000a900460ff16908060070154905088565b6000604051905090565b600080fd5b600080fd5b6000819050919050565b611600816115ed565b811461160b57600080fd5b50565b60008135905061161d816115f7565b92915050565b600060208284031215611639576116386115e3565b5b60006116478482850161160e565b91505092915050565b611659816115ed565b82525050565b60006020820190506116746000830184611650565b92915050565b600073ffffffffffffffffffffffffffffffffffffffff82169050919050565b60006116a58261167a565b9050919050565b6116b58161169a565b81146116c057600080fd5b50565b6000813590506116d2816116ac565b92915050565b600080fd5b600080fd5b6000601f19601f8301169050919050565b7f4e487b7100000000000000000000000000000000000000000000000000000000600052604160045260246000fd5b61172b826116e2565b810181811067ffffffffffffffff8211171561174a576117496116f3565b5b80604052505050565b600061175d6115d9565b90506117698282611722565b919050565b600067ffffffffffffffff821115611789576117886116f3565b5b611792826116e2565b9050602081019050919050565b82818337600083830152505050565b60006117c16117bc8461176e565b611753565b9050828152602081018484840111156117dd576117dc6116dd565b5b6117e884828561179f565b509392505050565b600082601f830112611805576118046116d8565b5b81356118158482602086016117ae565b91505092915050565b600080600060608486031215611837576118366115e3565b5b6000611845868287016116c3565b935050602084013567ffffffffffffffff811115611866576118656115e8565b5b611872868287016117f0565b92505060406118838682870161160e565b9150509250925092565b6118968161169a565b82525050565b600081519050919050565b600082825260208201905092915050565b60005b838110156118d65780820151818401526020810190506118bb565b60008484015250505050565b60006118ed8261189c565b6118f781856118a7565b93506119078185602086016118b8565b611910816116e2565b840191505092915050565b60008115159050919050565b6119308161191b565b82525050565b600060e08201905061194b600083018a611650565b611958602083018961188d565b818103604083015261196a81886118e2565b90506119796060830187611650565b6119866080830186611927565b61199360a0830185611650565b6119a060c0830184611650565b98975050505050505050565b600081519050919050565b600082825260208201905092915050565b6000819050602082019050919050565b6119e1816115ed565b82525050565b60006119f383836119d8565b60208301905092915050565b6000602082019050919050565b6000611a17826119ac565b611a2181856119b7565b9350611a2c836119c8565b8060005b83811015611a5d578151611a4488826119e7565b9750611a4f836119ff565b925050600181019050611a30565b5085935050505092915050565b60006020820190508181036000830152611a848184611a0c565b905092915050565b600061010082019050611aa2600083018b611650565b611aaf602083018a61188d565b8181036040830152611ac181896118e2565b9050611ad06060830188611650565b611add6080830187611927565b611aea60a0830186611650565b611af760c0830185611927565b611b0460e0830184611650565b9998505050505050505050565b6000602082019050611b26600083018461188d565b92915050565b7f53747564656e7420646f6573206e6f7420657869737400000000000000000000600082015250565b6000611b626016836118a7565b9150611b6d82611b2c565b602082019050919050565b60006020820190508181036000830152611b9181611b55565b9050919050565b7f4665657320616c72656164792070616964000000000000000000000000000000600082015250565b6000611bce6011836118a7565b9150611bd982611b98565b602082019050919050565b60006020820190508181036000830152611bfd81611bc1565b9050919050565b7f496e73756666696369656e74207061796d656e7420666f722074686973206c6560008201527f76656c0000000000000000000000000000000000000000000000000000000000602082015250565b6000611c606023836118a7565b9150611c6b82611c04565b604082019050919050565b60006020820190508181036000830152611c8f81611c53565b9050919050565b6000606082019050611cab6000830186611650565b611cb86020830185611650565b611cc56040830184611650565b949350505050565b7f4f6e6c792061646d696e2063616e20646f207468697300000000000000000000600082015250565b6000611d036016836118a7565b9150611d0e82611ccd565b602082019050919050565b60006020820190508181036000830152611d3281611cf6565b9050919050565b7f57616c6c65742063616e6e6f74206265207a65726f2061646472657373000000600082015250565b6000611d6f601d836118a7565b9150611d7a82611d39565b602082019050919050565b60006020820190508181036000830152611d9e81611d62565b9050919050565b7f4e616d652063616e6e6f7420626520656d707479000000000000000000000000600082015250565b6000611ddb6014836118a7565b9150611de682611da5565b602082019050919050565b60006020820190508181036000830152611e0a81611dce565b9050919050565b7f5465616368696e67206c6576656c206d757374206265203130302c203230302c60008201527f203330302c206f72203430300000000000000000000000000000000000000000602082015250565b6000611e6d602c836118a7565b9150611e7882611e11565b604082019050919050565b60006020820190508181036000830152611e9c81611e60565b9050919050565b7f4e487b7100000000000000000000000000000000000000000000000000000000600052601160045260246000fd5b6000611edd826115ed565b91507fffffffffffffffffffffffffffffffffffffffffffffffffffffffffffffffff8203611f0f57611f0e611ea3565b5b600182019050919050565b6000611f25826115ed565b9150611f30836115ed565b9250828202611f3e816115ed565b91508282048414831517611f5557611f54611ea3565b5b5092915050565b7f4e487b7100000000000000000000000000000000000000000000000000000000600052602260045260246000fd5b60006002820490506001821680611fa357607f821691505b602082108103611fb657611fb5611f5c565b5b50919050565b60008190508160005260206000209050919050565b60006020601f8301049050919050565b600082821b905092915050565b60006008830261201e7fffffffffffffffffffffffffffffffffffffffffffffffffffffffffffffffff82611fe1565b6120288683611fe1565b95508019841693508086168417925050509392505050565b6000819050919050565b600061206561206061205b846115ed565b612040565b6115ed565b9050919050565b6000819050919050565b61207f8361204a565b61209361208b8261206c565b848454611fee565b825550505050565b600090565b6120a861209b565b6120b3818484612076565b505050565b5b818110156120d7576120cc6000826120a0565b6001810190506120b9565b5050565b601f82111561211c576120ed81611fbc565b6120f684611fd1565b81016020851015612105578190505b61211961211185611fd1565b8301826120b8565b50505b505050565b600082821c905092915050565b600061213f60001984600802612121565b1980831691505092915050565b6000612158838361212e565b9150826002028217905092915050565b6121718261189c565b67ffffffffffffffff81111561218a576121896116f3565b5b6121948254611f8b565b61219f8282856120db565b600060209050601f8311600181146121d257600084156121c0578287015190505b6121ca858261214c565b865550612232565b601f1984166121e086611fbc565b60005b82811015612208578489015182556001820191506020850194506020810190506121e3565b868310156122255784890151612221601f89168261212e565b8355505b6001600288020188555050505b505050505050565b600060608201905061224f6000830186611650565b61225c602083018561188d565b818103604083015261226e81846118e2565b9050949350505050565b7f53747564656e74206e6f7420666f756e64000000000000000000000000000000600082015250565b60006122ae6011836118a7565b91506122b982612278565b602082019050919050565b600060208201905081810360008301526122dd816122a1565b9050919050565b7f537461666620646f6573206e6f74206578697374000000000000000000000000600082015250565b600061231a6014836118a7565b9150612325826122e4565b602082019050919050565b600060208201905081810360008301526123498161230d565b9050919050565b7f53616c61727920616c7265616479207061696400000000000000000000000000600082015250565b60006123866013836118a7565b915061239182612350565b602082019050919050565b600060208201905081810360008301526123b581612379565b9050919050565b7f436f6e74726163742068617320696e73756666696369656e742066756e647300600082015250565b60006123f2601f836118a7565b91506123fd826123bc565b602082019050919050565b60006020820190508181036000830152612421816123e5565b9050919050565b600081905092915050565b50565b6000612443600083612428565b915061244e82612433565b600082019050919050565b600061246482612436565b9150819050919050565b7f455448207472616e73666572206661696c656400000000000000000000000000600082015250565b60006124a46013836118a7565b91506124af8261246e565b602082019050919050565b600060208201905081810360008301526124d381612497565b9050919050565b7f4c6576656c206d757374206265203130302c203230302c203330302c206f722060008201527f3430300000000000000000000000000000000000000000000000000000000000602082015250565b60006125366023836118a7565b9150612541826124da565b604082019050919050565b6000602082019050818103600083015261256581612529565b9050919050565b60006080820190506125816000830187611650565b61258e602083018661188d565b81810360408301526125a081856118e2565b90506125af6060830184611650565b95945050505050565b7f5374616666206e6f7420666f756e640000000000000000000000000000000000600082015250565b60006125ee600f836118a7565b91506125f9826125b8565b602082019050919050565b6000602082019050818103600083015261261d816125e1565b905091905056fea2646970667358221220c66b4f92e1866ba34458c85c3a39dab458aeda21183d76317a2c0a716b58ff4e64736f6c634300081c0033",
  "linkReferences": {},
  "deployedLinkReferences": {}
}