{
  "_format": "hh-sol-artifact-1",
  "contractName": "SchoolManagement",
  "sourceName": "contracts/SchoolManagement.sol",
  "abi": [
    {
      "inputs": [
        {
          "internalType": "address",
          "name": "_token",
          "type": "address"
        },
        {
          "internalType": "address",
          "name": "_admin",
          "type": "address"
        }
      ],
      "stateMutability": "nonpayable",
      "type": "constructor"
    },
    {
      "anonymous": false,
      "inputs": [
        {
          "indexed": true,
          "internalType": "address",
          "name": "staff",
          "type": "address"
        },
        {
          "indexed": true,
          "internalType": "uint256",
          "name": "amountPaid",
          "type": "uint256"
        }
      ],
      "name": "staffPaid",
      "type": "event"
    },
    {
      "anonymous": false,
      "inputs": [
        {
          "indexed": true,
          "internalType": "address",
          "name": "staff",
          "type": "address"
        }
      ],
      "name": "staffRegistered",
      "type": "event"
    },
    {
      "anonymous": false,
      "inputs": [
        {
          "indexed": true,
          "internalType": "address",
          "name": "student",
          "type": "address"
        }
      ],
      "name": "studentExpelled",
      "type": "event"
    },
    {
      "anonymous": false,
      "inputs": [
        {
          "indexed": true,
          "internalType": "address",
          "name": "student",
          "type": "address"
        },
        {
          "indexed": true,
          "internalType": "uint256",
          "name": "feePaid",
          "type": "uint256"
        }
      ],
      "name": "studentRegistered",
      "type": "event"
    },
    {
      "stateMutability": "nonpayable",
      "type": "fallback"
    },
    {
      "inputs": [
        {
          "internalType": "address",
          "name": "student",
          "type": "address"
        }
      ],
      "name": "expelStudent",
      "outputs": [
        {
          "internalType": "bool",
          "name": "",
          "type": "bool"
        }
      ],
      "stateMutability": "nonpayable",
      "type": "function"
    },
    {
      "inputs": [],
      "name": "getAllStaff",
      "outputs": [
        {
          "internalType": "address[]",
          "name": "",
          "type": "address[]"
        }
      ],
      "stateMutability": "view",
      "type": "function"
    },
    {
      "inputs": [],
      "name": "getAllStudents",
      "outputs": [
        {
          "internalType": "address[]",
          "name": "",
          "type": "address[]"
        }
      ],
      "stateMutability": "view",
      "type": "function"
    },
    {
      "inputs": [
        {
          "internalType": "uint256",
          "name": "amount",
          "type": "uint256"
        },
        {
          "internalType": "address",
          "name": "staff",
          "type": "address"
        }
      ],
      "name": "payStaff",
      "outputs": [
        {
          "internalType": "bool",
          "name": "",
          "type": "bool"
        }
      ],
      "stateMutability": "nonpayable",
      "type": "function"
    },
    {
      "inputs": [
        {
          "internalType": "address",
          "name": "_staff",
          "type": "address"
        }
      ],
      "name": "registerStaff",
      "outputs": [
        {
          "internalType": "bool",
          "name": "",
          "type": "bool"
        }
      ],
      "stateMutability": "nonpayable",
      "type": "function"
    },
    {
      "inputs": [
        {
          "internalType": "uint256",
          "name": "amount",
          "type": "uint256"
        },
        {
          "internalType": "uint8",
          "name": "studentLevel",
          "type": "uint8"
        }
      ],
      "name": "registerStudent",
      "outputs": [
        {
          "internalType": "bool",
          "name": "",
          "type": "bool"
        }
      ],
      "stateMutability": "payable",
      "type": "function"
    },
    {
      "inputs": [
        {
          "internalType": "address",
          "name": "",
          "type": "address"
        }
      ],
      "name": "registeredStaffs",
      "outputs": [
        {
          "internalType": "address",
          "name": "staffAddress",
          "type": "address"
        },
        {
          "internalType": "bool",
          "name": "salaryPaid",
          "type": "bool"
        },
        {
          "internalType": "bool",
          "name": "suspended",
          "type": "bool"
        }
      ],
      "stateMutability": "view",
      "type": "function"
    },
    {
      "inputs": [
        {
          "internalType": "address",
          "name": "",
          "type": "address"
        }
      ],
      "name": "registeredStudents",
      "outputs": [
        {
          "internalType": "address",
          "name": "studentAddress",
          "type": "address"
        },
        {
          "internalType": "uint8",
          "name": "level",
          "type": "uint8"
        },
        {
          "internalType": "bool",
          "name": "feePaid",
          "type": "bool"
        },
        {
          "internalType": "uint256",
          "name": "paymentTimestamp",
          "type": "uint256"
        }
      ],
      "stateMutability": "view",
      "type": "function"
    },
    {
      "inputs": [
        {
          "internalType": "uint64",
          "name": "",
          "type": "uint64"
        }
      ],
      "name": "schoolFeesPerLevel",
      "outputs": [
        {
          "internalType": "uint256",
          "name": "",
          "type": "uint256"
        }
      ],
      "stateMutability": "view",
      "type": "function"
    },
    {
      "inputs": [
        {
          "internalType": "address",
          "name": "staff",
          "type": "address"
        }
      ],
      "name": "suspendStaff",
      "outputs": [
        {
          "internalType": "bool",
          "name": "",
          "type": "bool"
        }
      ],
      "stateMutability": "nonpayable",
      "type": "function"
    },
    {
      "inputs": [
        {
          "internalType": "address",
          "name": "staff",
          "type": "address"
        }
      ],
      "name": "unSuspendStaff",
      "outputs": [
        {
          "internalType": "bool",
          "name": "",
          "type": "bool"
        }
      ],
      "stateMutability": "nonpayable",
      "type": "function"
    },
    {
      "stateMutability": "payable",
      "type": "receive"
    }
  ],
  "bytecode": "0x608060405234801561001057600080fd5b5060405161250c38038061250c833981810160405281019061003291906101b3565b816000806101000a81548173ffffffffffffffffffffffffffffffffffffffff021916908373ffffffffffffffffffffffffffffffffffffffff16021790555080600160006101000a81548173ffffffffffffffffffffffffffffffffffffffff021916908373ffffffffffffffffffffffffffffffffffffffff1602179055506101f460026000606467ffffffffffffffff168152602001908152602001600020819055506103e86002600060c867ffffffffffffffff168152602001908152602001600020819055506105dc6002600061012c67ffffffffffffffff168152602001908152602001600020819055506107d06002600061019067ffffffffffffffff1681526020019081526020016000208190555050506101f3565b600080fd5b600073ffffffffffffffffffffffffffffffffffffffff82169050919050565b600061018082610155565b9050919050565b61019081610175565b811461019b57600080fd5b50565b6000815190506101ad81610187565b92915050565b600080604083850312156101ca576101c9610150565b5b60006101d88582860161019e565b92505060206101e98582860161019e565b9150509250929050565b61230a806102026000396000f3fe60806040526004361061009f5760003560e01c80636ea2f53c116100645780636ea2f53c146101d5578063a9b3821c14610215578063bd82d46214610252578063bf8a21881461028f578063caa7d421146102cc578063e9e30927146102fc576100a6565b8062eac4f4146100b4578063032e0868146100f15780632d6bb07a1461011c5780633062e2391461015b5780634e98b5e014610198576100a6565b366100a657005b3480156100b257600080fd5b005b3480156100c057600080fd5b506100db60048036038101906100d691906118bc565b610327565b6040516100e89190611904565b60405180910390f35b3480156100fd57600080fd5b5061010661057d565b60405161011391906119dd565b60405180910390f35b34801561012857600080fd5b50610143600480360381019061013e91906118bc565b61060b565b60405161015293929190611a0e565b60405180910390f35b34801561016757600080fd5b50610182600480360381019061017d91906118bc565b61066f565b60405161018f9190611904565b60405180910390f35b3480156101a457600080fd5b506101bf60048036038101906101ba91906118bc565b610836565b6040516101cc9190611904565b60405180910390f35b3480156101e157600080fd5b506101fc60048036038101906101f791906118bc565b610b01565b60405161020c9493929190611a7a565b60405180910390f35b34801561022157600080fd5b5061023c60048036038101906102379190611aeb565b610b6b565b6040516102499190611904565b60405180910390f35b34801561025e57600080fd5b50610279600480360381019061027491906118bc565b610f41565b6040516102869190611904565b60405180910390f35b34801561029b57600080fd5b506102b660048036038101906102b19190611b6b565b6112ce565b6040516102c39190611b98565b60405180910390f35b6102e660048036038101906102e19190611bdf565b6112e6565b6040516102f39190611904565b60405180910390f35b34801561030857600080fd5b5061031161174d565b60405161031e91906119dd565b60405180910390f35b6000600160009054906101000a900473ffffffffffffffffffffffffffffffffffffffff1673ffffffffffffffffffffffffffffffffffffffff163373ffffffffffffffffffffffffffffffffffffffff16146103b9576040517f08c379a00000000000000000000000000000000000000000000000000000000081526004016103b090611c7c565b60405180910390fd5b600073ffffffffffffffffffffffffffffffffffffffff16600460008473ffffffffffffffffffffffffffffffffffffffff1673ffffffffffffffffffffffffffffffffffffffff16815260200190815260200160002060000160009054906101000a900473ffffffffffffffffffffffffffffffffffffffff1673ffffffffffffffffffffffffffffffffffffffff160361048a576040517f08c379a000000000000000000000000000000000000000000000000000000000815260040161048190611ce8565b60405180910390fd5b600460008373ffffffffffffffffffffffffffffffffffffffff1673ffffffffffffffffffffffffffffffffffffffff16815260200190815260200160002060000160159054906101000a900460ff16610519576040517f08c379a000000000000000000000000000000000000000000000000000000000815260040161051090611d54565b60405180910390fd5b6000600460008473ffffffffffffffffffffffffffffffffffffffff1673ffffffffffffffffffffffffffffffffffffffff16815260200190815260200160002060000160156101000a81548160ff02191690831515021790555060019050919050565b6060600680548060200260200160405190810160405280929190818152602001828054801561060157602002820191906000526020600020905b8160009054906101000a900473ffffffffffffffffffffffffffffffffffffffff1673ffffffffffffffffffffffffffffffffffffffff16815260200190600101908083116105b7575b5050505050905090565b60046020528060005260406000206000915090508060000160009054906101000a900473ffffffffffffffffffffffffffffffffffffffff16908060000160149054906101000a900460ff16908060000160159054906101000a900460ff16905083565b6000600160009054906101000a900473ffffffffffffffffffffffffffffffffffffffff1673ffffffffffffffffffffffffffffffffffffffff163373ffffffffffffffffffffffffffffffffffffffff1614610701576040517f08c379a00000000000000000000000000000000000000000000000000000000081526004016106f890611c7c565b60405180910390fd5b600073ffffffffffffffffffffffffffffffffffffffff16600460008473ffffffffffffffffffffffffffffffffffffffff1673ffffffffffffffffffffffffffffffffffffffff16815260200190815260200160002060000160009054906101000a900473ffffffffffffffffffffffffffffffffffffffff1673ffffffffffffffffffffffffffffffffffffffff16036107d2576040517f08c379a00000000000000000000000000000000000000000000000000000000081526004016107c990611ce8565b60405180910390fd5b6001600460008473ffffffffffffffffffffffffffffffffffffffff1673ffffffffffffffffffffffffffffffffffffffff16815260200190815260200160002060000160156101000a81548160ff02191690831515021790555060019050919050565b6000600160009054906101000a900473ffffffffffffffffffffffffffffffffffffffff1673ffffffffffffffffffffffffffffffffffffffff163373ffffffffffffffffffffffffffffffffffffffff16146108c8576040517f08c379a00000000000000000000000000000000000000000000000000000000081526004016108bf90611c7c565b60405180910390fd5b600073ffffffffffffffffffffffffffffffffffffffff16600460008473ffffffffffffffffffffffffffffffffffffffff1673ffffffffffffffffffffffffffffffffffffffff16815260200190815260200160002060000160009054906101000a900473ffffffffffffffffffffffffffffffffffffffff1673ffffffffffffffffffffffffffffffffffffffff1614610999576040517f08c379a000000000000000000000000000000000000000000000000000000000815260040161099090611dc0565b60405180910390fd5b6109a16117db565b82816000019073ffffffffffffffffffffffffffffffffffffffff16908173ffffffffffffffffffffffffffffffffffffffff1681525050600081602001901515908115158152505080600460008573ffffffffffffffffffffffffffffffffffffffff1673ffffffffffffffffffffffffffffffffffffffff16815260200190815260200160002060008201518160000160006101000a81548173ffffffffffffffffffffffffffffffffffffffff021916908373ffffffffffffffffffffffffffffffffffffffff16021790555060208201518160000160146101000a81548160ff02191690831515021790555060408201518160000160156101000a81548160ff0219169083151502179055509050508273ffffffffffffffffffffffffffffffffffffffff167fc14e01a91a13a6152771110bca3e1d54e3a9dd1ed2a16cb2e7c4aa8f61b8cb6160405160405180910390a26001915050919050565b60036020528060005260406000206000915090508060000160009054906101000a900473ffffffffffffffffffffffffffffffffffffffff16908060000160149054906101000a900460ff16908060000160159054906101000a900460ff16908060010154905084565b6000600160009054906101000a900473ffffffffffffffffffffffffffffffffffffffff1673ffffffffffffffffffffffffffffffffffffffff163373ffffffffffffffffffffffffffffffffffffffff1614610bfd576040517f08c379a0000000000000000000000000000000000000000000000000000000008152600401610bf490611c7c565b60405180910390fd5b8260008054906101000a900473ffffffffffffffffffffffffffffffffffffffff1673ffffffffffffffffffffffffffffffffffffffff166370a08231306040518263ffffffff1660e01b8152600401610c579190611de0565b602060405180830381865afa158015610c74573d6000803e3d6000fd5b505050506040513d601f19601f82011682018060405250810190610c989190611e10565b1015610cd9576040517f08c379a0000000000000000000000000000000000000000000000000000000008152600401610cd090611e89565b60405180910390fd5b600460008373ffffffffffffffffffffffffffffffffffffffff1673ffffffffffffffffffffffffffffffffffffffff16815260200190815260200160002060000160149054906101000a900460ff1615610d69576040517f08c379a0000000000000000000000000000000000000000000000000000000008152600401610d6090611ef5565b60405180910390fd5b600460008373ffffffffffffffffffffffffffffffffffffffff1673ffffffffffffffffffffffffffffffffffffffff16815260200190815260200160002060000160159054906101000a900460ff1615610df9576040517f08c379a0000000000000000000000000000000000000000000000000000000008152600401610df090611f61565b60405180910390fd5b6001600460008473ffffffffffffffffffffffffffffffffffffffff1673ffffffffffffffffffffffffffffffffffffffff16815260200190815260200160002060000160146101000a81548160ff02191690831515021790555060008054906101000a900473ffffffffffffffffffffffffffffffffffffffff1673ffffffffffffffffffffffffffffffffffffffff1663a9059cbb83856040518363ffffffff1660e01b8152600401610eaf929190611f81565b6020604051808303816000875af1158015610ece573d6000803e3d6000fd5b505050506040513d601f19601f82011682018060405250810190610ef29190611fd6565b50828273ffffffffffffffffffffffffffffffffffffffff167ff8e7cc727c6b336edcaaf92afdac003e8f9b514756100f4113520466109266eb60405160405180910390a36001905092915050565b6000600160009054906101000a900473ffffffffffffffffffffffffffffffffffffffff1673ffffffffffffffffffffffffffffffffffffffff163373ffffffffffffffffffffffffffffffffffffffff1614610fd3576040517f08c379a0000000000000000000000000000000000000000000000000000000008152600401610fca90611c7c565b60405180910390fd5b600360008373ffffffffffffffffffffffffffffffffffffffff1673ffffffffffffffffffffffffffffffffffffffff16815260200190815260200160002060000160159054906101000a900460ff16611062576040517f08c379a00000000000000000000000000000000000000000000000000000000081526004016110599061204f565b60405180910390fd5b60005b6005805490508110156111e8578273ffffffffffffffffffffffffffffffffffffffff166005828154811061109d5761109c61206f565b5b9060005260206000200160009054906101000a900473ffffffffffffffffffffffffffffffffffffffff1673ffffffffffffffffffffffffffffffffffffffff16036111db57600560016005805490506110f791906120cd565b815481106111085761110761206f565b5b9060005260206000200160009054906101000a900473ffffffffffffffffffffffffffffffffffffffff16600582815481106111475761114661206f565b5b9060005260206000200160006101000a81548173ffffffffffffffffffffffffffffffffffffffff021916908373ffffffffffffffffffffffffffffffffffffffff16021790555060058054806111a1576111a0612101565b5b6001900381819060005260206000200160006101000a81549073ffffffffffffffffffffffffffffffffffffffff021916905590556111e8565b8080600101915050611065565b50600360008373ffffffffffffffffffffffffffffffffffffffff1673ffffffffffffffffffffffffffffffffffffffff168152602001908152602001600020600080820160006101000a81549073ffffffffffffffffffffffffffffffffffffffff02191690556000820160146101000a81549060ff02191690556000820160156101000a81549060ff0219169055600182016000905550508173ffffffffffffffffffffffffffffffffffffffff167f9687205eb18c407352518f9649792a547a7084eed51dc9bb364b021bfbb463f660405160405180910390a260019050919050565b60026020528060005260406000206000915090505481565b60008260008054906101000a900473ffffffffffffffffffffffffffffffffffffffff1673ffffffffffffffffffffffffffffffffffffffff1663dd62ed3e33306040518363ffffffff1660e01b8152600401611344929190612130565b602060405180830381865afa158015611361573d6000803e3d6000fd5b505050506040513d601f19601f820116820180604052508101906113859190611e10565b10156113c6576040517f08c379a00000000000000000000000000000000000000000000000000000000081526004016113bd906121a5565b60405180910390fd5b600260008360ff1667ffffffffffffffff168152602001908152602001600020548314611428576040517f08c379a000000000000000000000000000000000000000000000000000000000815260040161141f90612211565b60405180910390fd5b600360003373ffffffffffffffffffffffffffffffffffffffff1673ffffffffffffffffffffffffffffffffffffffff16815260200190815260200160002060000160159054906101000a900460ff16156114b8576040517f08c379a00000000000000000000000000000000000000000000000000000000081526004016114af9061227d565b60405180910390fd5b60008054906101000a900473ffffffffffffffffffffffffffffffffffffffff1673ffffffffffffffffffffffffffffffffffffffff166323b872dd3330866040518463ffffffff1660e01b81526004016115159392919061229d565b6020604051808303816000875af1158015611534573d6000803e3d6000fd5b505050506040513d601f19601f820116820180604052508101906115589190611fd6565b50611561611816565b33816000019073ffffffffffffffffffffffffffffffffffffffff16908173ffffffffffffffffffffffffffffffffffffffff1681525050600181604001901515908115158152505082816020019060ff16908160ff16815250504281606001818152505080600360003373ffffffffffffffffffffffffffffffffffffffff1673ffffffffffffffffffffffffffffffffffffffff16815260200190815260200160002060008201518160000160006101000a81548173ffffffffffffffffffffffffffffffffffffffff021916908373ffffffffffffffffffffffffffffffffffffffff16021790555060208201518160000160146101000a81548160ff021916908360ff16021790555060408201518160000160156101000a81548160ff021916908315150217905550606082015181600101559050506005339080600181540180825580915050600190039060005260206000200160009091909190916101000a81548173ffffffffffffffffffffffffffffffffffffffff021916908373ffffffffffffffffffffffffffffffffffffffff160217905550833373ffffffffffffffffffffffffffffffffffffffff167f9d5076781a5ccfffc235a2c8c38c774ea2b6bc299f25a16763af73edc40d432260405160405180910390a3600191505092915050565b606060058054806020026020016040519081016040528092919081815260200182805480156117d157602002820191906000526020600020905b8160009054906101000a900473ffffffffffffffffffffffffffffffffffffffff1673ffffffffffffffffffffffffffffffffffffffff1681526020019060010190808311611787575b5050505050905090565b6040518060600160405280600073ffffffffffffffffffffffffffffffffffffffff1681526020016000151581526020016000151581525090565b6040518060800160405280600073ffffffffffffffffffffffffffffffffffffffff168152602001600060ff168152602001600015158152602001600081525090565b600080fd5b600073ffffffffffffffffffffffffffffffffffffffff82169050919050565b60006118898261185e565b9050919050565b6118998161187e565b81146118a457600080fd5b50565b6000813590506118b681611890565b92915050565b6000602082840312156118d2576118d1611859565b5b60006118e0848285016118a7565b91505092915050565b60008115159050919050565b6118fe816118e9565b82525050565b600060208201905061191960008301846118f5565b92915050565b600081519050919050565b600082825260208201905092915050565b6000819050602082019050919050565b6119548161187e565b82525050565b6000611966838361194b565b60208301905092915050565b6000602082019050919050565b600061198a8261191f565b611994818561192a565b935061199f8361193b565b8060005b838110156119d05781516119b7888261195a565b97506119c283611972565b9250506001810190506119a3565b5085935050505092915050565b600060208201905081810360008301526119f7818461197f565b905092915050565b611a088161187e565b82525050565b6000606082019050611a2360008301866119ff565b611a3060208301856118f5565b611a3d60408301846118f5565b949350505050565b600060ff82169050919050565b611a5b81611a45565b82525050565b6000819050919050565b611a7481611a61565b82525050565b6000608082019050611a8f60008301876119ff565b611a9c6020830186611a52565b611aa960408301856118f5565b611ab66060830184611a6b565b95945050505050565b611ac881611a61565b8114611ad357600080fd5b50565b600081359050611ae581611abf565b92915050565b60008060408385031215611b0257611b01611859565b5b6000611b1085828601611ad6565b9250506020611b21858286016118a7565b9150509250929050565b600067ffffffffffffffff82169050919050565b611b4881611b2b565b8114611b5357600080fd5b50565b600081359050611b6581611b3f565b92915050565b600060208284031215611b8157611b80611859565b5b6000611b8f84828501611b56565b91505092915050565b6000602082019050611bad6000830184611a6b565b92915050565b611bbc81611a45565b8114611bc757600080fd5b50565b600081359050611bd981611bb3565b92915050565b60008060408385031215611bf657611bf5611859565b5b6000611c0485828601611ad6565b9250506020611c1585828601611bca565b9150509250929050565b600082825260208201905092915050565b7f556e617574686f72697a65640000000000000000000000000000000000000000600082015250565b6000611c66600c83611c1f565b9150611c7182611c30565b602082019050919050565b60006020820190508181036000830152611c9581611c59565b9050919050565b7f5374616666206e6f742072656769737465726564000000000000000000000000600082015250565b6000611cd2601483611c1f565b9150611cdd82611c9c565b602082019050919050565b60006020820190508181036000830152611d0181611cc5565b9050919050565b7f5374616666206e6f742073757370656e64656400000000000000000000000000600082015250565b6000611d3e601383611c1f565b9150611d4982611d08565b602082019050919050565b60006020820190508181036000830152611d6d81611d31565b9050919050565b7f616c726561647920726567697374657265640000000000000000000000000000600082015250565b6000611daa601283611c1f565b9150611db582611d74565b602082019050919050565b60006020820190508181036000830152611dd981611d9d565b9050919050565b6000602082019050611df560008301846119ff565b92915050565b600081519050611e0a81611abf565b92915050565b600060208284031215611e2657611e25611859565b5b6000611e3484828501611dfb565b91505092915050565b7f496e73756666696369656e7420746f6b656e2062616c616e6365000000000000600082015250565b6000611e73601a83611c1f565b9150611e7e82611e3d565b602082019050919050565b60006020820190508181036000830152611ea281611e66565b9050919050565b7f4e6f7420656c696769626c6520666f72207061796d656e740000000000000000600082015250565b6000611edf601883611c1f565b9150611eea82611ea9565b602082019050919050565b60006020820190508181036000830152611f0e81611ed2565b9050919050565b7f53746166662069732073757370656e6465640000000000000000000000000000600082015250565b6000611f4b601283611c1f565b9150611f5682611f15565b602082019050919050565b60006020820190508181036000830152611f7a81611f3e565b9050919050565b6000604082019050611f9660008301856119ff565b611fa36020830184611a6b565b9392505050565b611fb3816118e9565b8114611fbe57600080fd5b50565b600081519050611fd081611faa565b92915050565b600060208284031215611fec57611feb611859565b5b6000611ffa84828501611fc1565b91505092915050565b7f53747564656e74206e6f74207265676973746572656400000000000000000000600082015250565b6000612039601683611c1f565b915061204482612003565b602082019050919050565b600060208201905081810360008301526120688161202c565b9050919050565b7f4e487b7100000000000000000000000000000000000000000000000000000000600052603260045260246000fd5b7f4e487b7100000000000000000000000000000000000000000000000000000000600052601160045260246000fd5b60006120d882611a61565b91506120e383611a61565b92508282039050818111156120fb576120fa61209e565b5b92915050565b7f4e487b7100000000000000000000000000000000000000000000000000000000600052603160045260246000fd5b600060408201905061214560008301856119ff565b61215260208301846119ff565b9392505050565b7f416c6c6f77616e6365206e6f742073756666696369656e740000000000000000600082015250565b600061218f601883611c1f565b915061219a82612159565b602082019050919050565b600060208201905081810360008301526121be81612182565b9050919050565b7f4e6f74207468652066656520666f72206c6576656c0000000000000000000000600082015250565b60006121fb601583611c1f565b9150612206826121c5565b602082019050919050565b6000602082019050818103600083015261222a816121ee565b9050919050565b7f53747564656e7420616c72656164792072656769737465726564000000000000600082015250565b6000612267601a83611c1f565b915061227282612231565b602082019050919050565b600060208201905081810360008301526122968161225a565b9050919050565b60006060820190506122b260008301866119ff565b6122bf60208301856119ff565b6122cc6040830184611a6b565b94935050505056fea2646970667358221220c8160ec45109c61750990ba7d0cbd70f7c4406e1566669cadcdefede0337572e64736f6c634300081c0033",
  "linkReferences": {},
  "deployedLinkReferences": {}
}