{
  "_format": "hh-sol-artifact-1",
  "contractName": "SaveAsset",
  "sourceName": "contracts/SaveAsset.sol",
  "abi": [
    {
      "inputs": [
        {
          "internalType": "address",
          "name": "_token_address",
          "type": "address"
        }
      ],
      "stateMutability": "nonpayable",
      "type": "constructor"
    },
    {
      "anonymous": false,
      "inputs": [
        {
          "indexed": true,
          "internalType": "address",
          "name": "sender",
          "type": "address"
        },
        {
          "indexed": true,
          "internalType": "uint256",
          "name": "amount",
          "type": "uint256"
        }
      ],
      "name": "DepositSuccessful",
      "type": "event"
    },
    {
      "anonymous": false,
      "inputs": [
        {
          "indexed": true,
          "internalType": "address",
          "name": "receiver",
          "type": "address"
        },
        {
          "indexed": true,
          "internalType": "uint256",
          "name": "amount",
          "type": "uint256"
        },
        {
          "indexed": false,
          "internalType": "bytes",
          "name": "data",
          "type": "bytes"
        }
      ],
      "name": "WithdrawalSuccessful",
      "type": "event"
    },
    {
      "stateMutability": "nonpayable",
      "type": "fallback"
    },
    {
      "inputs": [
        {
          "internalType": "address",
          "name": "",
          "type": "address"
        }
      ],
      "name": "balances",
      "outputs": [
        {
          "internalType": "uint256",
          "name": "",
          "type": "uint256"
        }
      ],
      "stateMutability": "view",
      "type": "function"
    },
    {
      "inputs": [],
      "name": "deposit",
      "outputs": [],
      "stateMutability": "payable",
      "type": "function"
    },
    {
      "inputs": [
        {
          "internalType": "uint256",
          "name": "_amount",
          "type": "uint256"
        }
      ],
      "name": "depositERC20",
      "outputs": [],
      "stateMutability": "nonpayable",
      "type": "function"
    },
    {
      "inputs": [],
      "name": "getContractBalance",
      "outputs": [
        {
          "internalType": "uint256",
          "name": "",
          "type": "uint256"
        }
      ],
      "stateMutability": "view",
      "type": "function"
    },
    {
      "inputs": [],
      "name": "getErc20SavingsBalance",
      "outputs": [
        {
          "internalType": "uint256",
          "name": "",
          "type": "uint256"
        }
      ],
      "stateMutability": "view",
      "type": "function"
    },
    {
      "inputs": [],
      "name": "getUserSavings",
      "outputs": [
        {
          "internalType": "uint256",
          "name": "",
          "type": "uint256"
        }
      ],
      "stateMutability": "view",
      "type": "function"
    },
    {
      "inputs": [
        {
          "internalType": "uint256",
          "name": "_amount",
          "type": "uint256"
        }
      ],
      "name": "withdraw",
      "outputs": [],
      "stateMutability": "nonpayable",
      "type": "function"
    },
    {
      "inputs": [
        {
          "internalType": "uint256",
          "name": "_amount",
          "type": "uint256"
        }
      ],
      "name": "withdrawERC20",
      "outputs": [],
      "stateMutability": "nonpayable",
      "type": "function"
    },
    {
      "stateMutability": "payable",
      "type": "receive"
    }
  ],
  "bytecode": "0x608060405234801561001057600080fd5b5060405161133d38038061133d833981810160405281019061003291906100db565b806000806101000a81548173ffffffffffffffffffffffffffffffffffffffff021916908373ffffffffffffffffffffffffffffffffffffffff16021790555050610108565b600080fd5b600073ffffffffffffffffffffffffffffffffffffffff82169050919050565b60006100a88261007d565b9050919050565b6100b88161009d565b81146100c357600080fd5b50565b6000815190506100d5816100af565b92915050565b6000602082840312156100f1576100f0610078565b5b60006100ff848285016100c6565b91505092915050565b611226806101176000396000f3fe60806040526004361061007f5760003560e01c8063b79092fd1161004e578063b79092fd14610150578063c1650bb714610179578063d0e30db0146101a4578063d78276c6146101ae57610086565b806327e235e3146100945780632e1a7d4d146100d1578063690e2ea9146100fa5780636f9fb98a1461012557610086565b3661008657005b34801561009257600080fd5b005b3480156100a057600080fd5b506100bb60048036038101906100b69190610b9a565b6101d7565b6040516100c89190610be0565b60405180910390f35b3480156100dd57600080fd5b506100f860048036038101906100f39190610c27565b6101ef565b005b34801561010657600080fd5b5061010f610437565b60405161011c9190610be0565b60405180910390f35b34801561013157600080fd5b5061013a61047e565b6040516101479190610be0565b60405180910390f35b34801561015c57600080fd5b5061017760048036038101906101729190610c27565b610486565b005b34801561018557600080fd5b5061018e610759565b60405161019b9190610be0565b60405180910390f35b6101ac6107a0565b005b3480156101ba57600080fd5b506101d560048036038101906101d09190610c27565b6108b7565b005b60016020528060005260406000206000915090505481565b600073ffffffffffffffffffffffffffffffffffffffff163373ffffffffffffffffffffffffffffffffffffffff160361025e576040517f08c379a000000000000000000000000000000000000000000000000000000000815260040161025590610cb1565b60405180910390fd5b6000600160003373ffffffffffffffffffffffffffffffffffffffff1673ffffffffffffffffffffffffffffffffffffffff168152602001908152602001600020549050600081116102e5576040517f08c379a00000000000000000000000000000000000000000000000000000000081526004016102dc90610d1d565b60405180910390fd5b81816102f19190610d6c565b600160003373ffffffffffffffffffffffffffffffffffffffff1673ffffffffffffffffffffffffffffffffffffffff168152602001908152602001600020819055506000803373ffffffffffffffffffffffffffffffffffffffff168460405161035b90610dd1565b60006040518083038185875af1925050503d8060008114610398576040519150601f19603f3d011682016040523d82523d6000602084013e61039d565b606091505b5091509150816103e2576040517f08c379a00000000000000000000000000000000000000000000000000000000081526004016103d990610e32565b60405180910390fd5b833373ffffffffffffffffffffffffffffffffffffffff167f38c4cbe065ed2235be0df490ea24f35671853f70bb149d4ff8739d9f8d716af6836040516104299190610ee2565b60405180910390a350505050565b6000600160003373ffffffffffffffffffffffffffffffffffffffff1673ffffffffffffffffffffffffffffffffffffffff16815260200190815260200160002054905090565b600047905090565b600081116104c9576040517f08c379a00000000000000000000000000000000000000000000000000000000081526004016104c090610f50565b60405180910390fd5b8060008054906101000a900473ffffffffffffffffffffffffffffffffffffffff1673ffffffffffffffffffffffffffffffffffffffff166370a08231336040518263ffffffff1660e01b81526004016105239190610f7f565b602060405180830381865afa158015610540573d6000803e3d6000fd5b505050506040513d601f19601f820116820180604052508101906105649190610faf565b10156105a5576040517f08c379a000000000000000000000000000000000000000000000000000000000815260040161059c90610d1d565b60405180910390fd5b80600260003373ffffffffffffffffffffffffffffffffffffffff1673ffffffffffffffffffffffffffffffffffffffff168152602001908152602001600020546105f09190610fdc565b600260003373ffffffffffffffffffffffffffffffffffffffff1673ffffffffffffffffffffffffffffffffffffffff1681526020019081526020016000208190555060008054906101000a900473ffffffffffffffffffffffffffffffffffffffff1673ffffffffffffffffffffffffffffffffffffffff166323b872dd3330846040518463ffffffff1660e01b815260040161069093929190611010565b6020604051808303816000875af11580156106af573d6000803e3d6000fd5b505050506040513d601f19601f820116820180604052508101906106d3919061107f565b610712576040517f08c379a000000000000000000000000000000000000000000000000000000000815260040161070990610e32565b60405180910390fd5b803373ffffffffffffffffffffffffffffffffffffffff167fb3ef81558ed1a50072a492984535a009da8b129c749500b387f1e5f4886bdde560405160405180910390a350565b6000600260003373ffffffffffffffffffffffffffffffffffffffff1673ffffffffffffffffffffffffffffffffffffffff16815260200190815260200160002054905090565b600034116107e3576040517f08c379a00000000000000000000000000000000000000000000000000000000081526004016107da906110f8565b60405180910390fd5b34600160003373ffffffffffffffffffffffffffffffffffffffff1673ffffffffffffffffffffffffffffffffffffffff1681526020019081526020016000205461082e9190610fdc565b600160003373ffffffffffffffffffffffffffffffffffffffff1673ffffffffffffffffffffffffffffffffffffffff16815260200190815260200160002081905550343373ffffffffffffffffffffffffffffffffffffffff167fb3ef81558ed1a50072a492984535a009da8b129c749500b387f1e5f4886bdde560405160405180910390a3565b600081116108fa576040517f08c379a00000000000000000000000000000000000000000000000000000000081526004016108f190610f50565b60405180910390fd5b80600260003373ffffffffffffffffffffffffffffffffffffffff1673ffffffffffffffffffffffffffffffffffffffff16815260200190815260200160002054101561097c576040517f08c379a000000000000000000000000000000000000000000000000000000000815260040161097390611164565b60405180910390fd5b80600260003373ffffffffffffffffffffffffffffffffffffffff1673ffffffffffffffffffffffffffffffffffffffff168152602001908152602001600020546109c79190610d6c565b600260003373ffffffffffffffffffffffffffffffffffffffff1673ffffffffffffffffffffffffffffffffffffffff1681526020019081526020016000208190555060008054906101000a900473ffffffffffffffffffffffffffffffffffffffff1673ffffffffffffffffffffffffffffffffffffffff1663a9059cbb33836040518363ffffffff1660e01b8152600401610a65929190611184565b6020604051808303816000875af1158015610a84573d6000803e3d6000fd5b505050506040513d601f19601f82011682018060405250810190610aa8919061107f565b610ae7576040517f08c379a0000000000000000000000000000000000000000000000000000000008152600401610ade90610e32565b60405180910390fd5b803373ffffffffffffffffffffffffffffffffffffffff167f38c4cbe065ed2235be0df490ea24f35671853f70bb149d4ff8739d9f8d716af6604051610b2c906111d0565b60405180910390a350565b600080fd5b600073ffffffffffffffffffffffffffffffffffffffff82169050919050565b6000610b6782610b3c565b9050919050565b610b7781610b5c565b8114610b8257600080fd5b50565b600081359050610b9481610b6e565b92915050565b600060208284031215610bb057610baf610b37565b5b6000610bbe84828501610b85565b91505092915050565b6000819050919050565b610bda81610bc7565b82525050565b6000602082019050610bf56000830184610bd1565b92915050565b610c0481610bc7565b8114610c0f57600080fd5b50565b600081359050610c2181610bfb565b92915050565b600060208284031215610c3d57610c3c610b37565b5b6000610c4b84828501610c12565b91505092915050565b600082825260208201905092915050565b7f41646472657373207a65726f2064657465637465640000000000000000000000600082015250565b6000610c9b601583610c54565b9150610ca682610c65565b602082019050919050565b60006020820190508181036000830152610cca81610c8e565b9050919050565b7f496e73756666696369656e742066756e64730000000000000000000000000000600082015250565b6000610d07601283610c54565b9150610d1282610cd1565b602082019050919050565b60006020820190508181036000830152610d3681610cfa565b9050919050565b7f4e487b7100000000000000000000000000000000000000000000000000000000600052601160045260246000fd5b6000610d7782610bc7565b9150610d8283610bc7565b9250828203905081811115610d9a57610d99610d3d565b5b92915050565b600081905092915050565b50565b6000610dbb600083610da0565b9150610dc682610dab565b600082019050919050565b6000610ddc82610dae565b9150819050919050565b7f7472616e73666572206661696c65640000000000000000000000000000000000600082015250565b6000610e1c600f83610c54565b9150610e2782610de6565b602082019050919050565b60006020820190508181036000830152610e4b81610e0f565b9050919050565b600081519050919050565b600082825260208201905092915050565b60005b83811015610e8c578082015181840152602081019050610e71565b60008484015250505050565b6000601f19601f8301169050919050565b6000610eb482610e52565b610ebe8185610e5d565b9350610ece818560208601610e6e565b610ed781610e98565b840191505092915050565b60006020820190508181036000830152610efc8184610ea9565b905092915050565b7f43616e27742073656e64207a65726f2076616c75650000000000000000000000600082015250565b6000610f3a601583610c54565b9150610f4582610f04565b602082019050919050565b60006020820190508181036000830152610f6981610f2d565b9050919050565b610f7981610b5c565b82525050565b6000602082019050610f946000830184610f70565b92915050565b600081519050610fa981610bfb565b92915050565b600060208284031215610fc557610fc4610b37565b5b6000610fd384828501610f9a565b91505092915050565b6000610fe782610bc7565b9150610ff283610bc7565b925082820190508082111561100a57611009610d3d565b5b92915050565b60006060820190506110256000830186610f70565b6110326020830185610f70565b61103f6040830184610bd1565b949350505050565b60008115159050919050565b61105c81611047565b811461106757600080fd5b50565b60008151905061107981611053565b92915050565b60006020828403121561109557611094610b37565b5b60006110a38482850161106a565b91505092915050565b7f43616e2774206465706f736974207a65726f2076616c75650000000000000000600082015250565b60006110e2601883610c54565b91506110ed826110ac565b602082019050919050565b60006020820190508181036000830152611111816110d5565b9050919050565b7f4e6f7420656e6f75676820736176696e67730000000000000000000000000000600082015250565b600061114e601283610c54565b915061115982611118565b602082019050919050565b6000602082019050818103600083015261117d81611141565b9050919050565b60006040820190506111996000830185610f70565b6111a66020830184610bd1565b9392505050565b60006111ba600083610e5d565b91506111c582610dab565b600082019050919050565b600060208201905081810360008301526111e9816111ad565b905091905056fea2646970667358221220476b91a41d4b6c5b6191e9901bf851730fd9db0b1e76fde1151d4ba3c647991864736f6c634300081c0033",
  "linkReferences": {},
  "deployedLinkReferences": {}
}