{
  "_format": "hh-sol-artifact-1",
  "contractName": "OmoboiOnchainNFT",
  "sourceName": "contracts/OmoboiOnchainNFT.sol",
  "abi": [
    {
      "inputs": [],
      "stateMutability": "nonpayable",
      "type": "constructor"
    },
    {
      "inputs": [
        {
          "internalType": "address",
          "name": "sender",
          "type": "address"
        },
        {
          "internalType": "uint256",
          "name": "tokenId",
          "type": "uint256"
        },
        {
          "internalType": "address",
          "name": "owner",
          "type": "address"
        }
      ],
      "name": "ERC721IncorrectOwner",
      "type": "error"
    },
    {
      "inputs": [
        {
          "internalType": "address",
          "name": "operator",
          "type": "address"
        },
        {
          "internalType": "uint256",
          "name": "tokenId",
          "type": "uint256"
        }
      ],
      "name": "ERC721InsufficientApproval",
      "type": "error"
    },
    {
      "inputs": [
        {
          "internalType": "address",
          "name": "approver",
          "type": "address"
        }
      ],
      "name": "ERC721InvalidApprover",
      "type": "error"
    },
    {
      "inputs": [
        {
          "internalType": "address",
          "name": "operator",
          "type": "address"
        }
      ],
      "name": "ERC721InvalidOperator",
      "type": "error"
    },
    {
      "inputs": [
        {
          "internalType": "address",
          "name": "owner",
          "type": "address"
        }
      ],
      "name": "ERC721InvalidOwner",
      "type": "error"
    },
    {
      "inputs": [
        {
          "internalType": "address",
          "name": "receiver",
          "type": "address"
        }
      ],
      "name": "ERC721InvalidReceiver",
      "type": "error"
    },
    {
      "inputs": [
        {
          "internalType": "address",
          "name": "sender",
          "type": "address"
        }
      ],
      "name": "ERC721InvalidSender",
      "type": "error"
    },
    {
      "inputs": [
        {
          "internalType": "uint256",
          "name": "tokenId",
          "type": "uint256"
        }
      ],
      "name": "ERC721NonexistentToken",
      "type": "error"
    },
    {
      "inputs": [
        {
          "internalType": "address",
          "name": "owner",
          "type": "address"
        }
      ],
      "name": "OwnableInvalidOwner",
      "type": "error"
    },
    {
      "inputs": [
        {
          "internalType": "address",
          "name": "account",
          "type": "address"
        }
      ],
      "name": "OwnableUnauthorizedAccount",
      "type": "error"
    },
    {
      "anonymous": false,
      "inputs": [
        {
          "indexed": true,
          "internalType": "address",
          "name": "owner",
          "type": "address"
        },
        {
          "indexed": true,
          "internalType": "address",
          "name": "approved",
          "type": "address"
        },
        {
          "indexed": true,
          "internalType": "uint256",
          "name": "tokenId",
          "type": "uint256"
        }
      ],
      "name": "Approval",
      "type": "event"
    },
    {
      "anonymous": false,
      "inputs": [
        {
          "indexed": true,
          "internalType": "address",
          "name": "owner",
          "type": "address"
        },
        {
          "indexed": true,
          "internalType": "address",
          "name": "operator",
          "type": "address"
        },
        {
          "indexed": false,
          "internalType": "bool",
          "name": "approved",
          "type": "bool"
        }
      ],
      "name": "ApprovalForAll",
      "type": "event"
    },
    {
      "anonymous": false,
      "inputs": [
        {
          "indexed": true,
          "internalType": "address",
          "name": "previousOwner",
          "type": "address"
        },
        {
          "indexed": true,
          "internalType": "address",
          "name": "newOwner",
          "type": "address"
        }
      ],
      "name": "OwnershipTransferred",
      "type": "event"
    },
    {
      "anonymous": false,
      "inputs": [
        {
          "indexed": true,
          "internalType": "address",
          "name": "from",
          "type": "address"
        },
        {
          "indexed": true,
          "internalType": "address",
          "name": "to",
          "type": "address"
        },
        {
          "indexed": true,
          "internalType": "uint256",
          "name": "tokenId",
          "type": "uint256"
        }
      ],
      "name": "Transfer",
      "type": "event"
    },
    {
      "inputs": [
        {
          "internalType": "address",
          "name": "to",
          "type": "address"
        },
        {
          "internalType": "uint256",
          "name": "tokenId",
          "type": "uint256"
        }
      ],
      "name": "approve",
      "outputs": [],
      "stateMutability": "nonpayable",
      "type": "function"
    },
    {
      "inputs": [
        {
          "internalType": "address",
          "name": "owner",
          "type": "address"
        }
      ],
      "name": "balanceOf",
      "outputs": [
        {
          "internalType": "uint256",
          "name": "",
          "type": "uint256"
        }
      ],
      "stateMutability": "view",
      "type": "function"
    },
    {
      "inputs": [
        {
          "internalType": "uint256",
          "name": "tokenId",
          "type": "uint256"
        }
      ],
      "name": "getApproved",
      "outputs": [
        {
          "internalType": "address",
          "name": "",
          "type": "address"
        }
      ],
      "stateMutability": "view",
      "type": "function"
    },
    {
      "inputs": [
        {
          "internalType": "address",
          "name": "owner",
          "type": "address"
        },
        {
          "internalType": "address",
          "name": "operator",
          "type": "address"
        }
      ],
      "name": "isApprovedForAll",
      "outputs": [
        {
          "internalType": "bool",
          "name": "",
          "type": "bool"
        }
      ],
      "stateMutability": "view",
      "type": "function"
    },
    {
      "inputs": [
        {
          "internalType": "address",
          "name": "_to",
          "type": "address"
        }
      ],
      "name": "mint",
      "outputs": [],
      "stateMutability": "nonpayable",
      "type": "function"
    },
    {
      "inputs": [],
      "name": "name",
      "outputs": [
        {
          "internalType": "string",
          "name": "",
          "type": "string"
        }
      ],
      "stateMutability": "view",
      "type": "function"
    },
    {
      "inputs": [],
      "name": "owner",
      "outputs": [
        {
          "internalType": "address",
          "name": "",
          "type": "address"
        }
      ],
      "stateMutability": "view",
      "type": "function"
    },
    {
      "inputs": [
        {
          "internalType": "uint256",
          "name": "tokenId",
          "type": "uint256"
        }
      ],
      "name": "ownerOf",
      "outputs": [
        {
          "internalType": "address",
          "name": "",
          "type": "address"
        }
      ],
      "stateMutability": "view",
      "type": "function"
    },
    {
      "inputs": [],
      "name": "renounceOwnership",
      "outputs": [],
      "stateMutability": "nonpayable",
      "type": "function"
    },
    {
      "inputs": [
        {
          "internalType": "address",
          "name": "from",
          "type": "address"
        },
        {
          "internalType": "address",
          "name": "to",
          "type": "address"
        },
        {
          "internalType": "uint256",
          "name": "tokenId",
          "type": "uint256"
        }
      ],
      "name": "safeTransferFrom",
      "outputs": [],
      "stateMutability": "nonpayable",
      "type": "function"
    },
    {
      "inputs": [
        {
          "internalType": "address",
          "name": "from",
          "type": "address"
        },
        {
          "internalType": "address",
          "name": "to",
          "type": "address"
        },
        {
          "internalType": "uint256",
          "name": "tokenId",
          "type": "uint256"
        },
        {
          "internalType": "bytes",
          "name": "data",
          "type": "bytes"
        }
      ],
      "name": "safeTransferFrom",
      "outputs": [],
      "stateMutability": "nonpayable",
      "type": "function"
    },
    {
      "inputs": [
        {
          "internalType": "address",
          "name": "operator",
          "type": "address"
        },
        {
          "internalType": "bool",
          "name": "approved",
          "type": "bool"
        }
      ],
      "name": "setApprovalForAll",
      "outputs": [],
      "stateMutability": "nonpayable",
      "type": "function"
    },
    {
      "inputs": [
        {
          "internalType": "bytes4",
          "name": "interfaceId",
          "type": "bytes4"
        }
      ],
      "name": "supportsInterface",
      "outputs": [
        {
          "internalType": "bool",
          "name": "",
          "type": "bool"
        }
      ],
      "stateMutability": "view",
      "type": "function"
    },
    {
      "inputs": [],
      "name": "symbol",
      "outputs": [
        {
          "internalType": "string",
          "name": "",
          "type": "string"
        }
      ],
      "stateMutability": "view",
      "type": "function"
    },
    {
      "inputs": [],
      "name": "tokenCounter",
      "outputs": [
        {
          "internalType": "uint256",
          "name": "",
          "type": "uint256"
        }
      ],
      "stateMutability": "view",
      "type": "function"
    },
    {
      "inputs": [
        {
          "internalType": "uint256",
          "name": "_tokenId",
          "type": "uint256"
        }
      ],
      "name": "tokenURI",
      "outputs": [
        {
          "internalType": "string",
          "name": "",
          "type": "string"
        }
      ],
      "stateMutability": "view",
      "type": "function"
    },
    {
      "inputs": [
        {
          "internalType": "address",
          "name": "from",
          "type": "address"
        },
        {
          "internalType": "address",
          "name": "to",
          "type": "address"
        },
        {
          "internalType": "uint256",
          "name": "tokenId",
          "type": "uint256"
        }
      ],
      "name": "transferFrom",
      "outputs": [],
      "stateMutability": "nonpayable",
      "type": "function"
    },
    {
      "inputs": [
        {
          "internalType": "address",
          "name": "newOwner",
          "type": "address"
        }
      ],
      "name": "transferOwnership",
      "outputs": [],
      "stateMutability": "nonpayable",
      "type": "function"
    }
  ],
  "bytecode": "0x60806040523480156200001157600080fd5b50336040518060400160405280601081526020017f4f6d6f626f694f6e636861696e4e4654000000000000000000000000000000008152506040518060400160405280600481526020017f4f4d4f430000000000000000000000000000000000000000000000000000000081525081600090816200009091906200047a565b508060019081620000a291906200047a565b505050600073ffffffffffffffffffffffffffffffffffffffff168173ffffffffffffffffffffffffffffffffffffffff16036200011a5760006040517f1e4fbdf7000000000000000000000000000000000000000000000000000000008152600401620001119190620005a6565b60405180910390fd5b6200012b816200013a60201b60201c565b506000600781905550620005c3565b6000600660009054906101000a900473ffffffffffffffffffffffffffffffffffffffff16905081600660006101000a81548173ffffffffffffffffffffffffffffffffffffffff021916908373ffffffffffffffffffffffffffffffffffffffff1602179055508173ffffffffffffffffffffffffffffffffffffffff168173ffffffffffffffffffffffffffffffffffffffff167f8be0079c531659141344cd1fd0a4f28419497f9722a3daafe3b4186f6b6457e060405160405180910390a35050565b600081519050919050565b7f4e487b7100000000000000000000000000000000000000000000000000000000600052604160045260246000fd5b7f4e487b7100000000000000000000000000000000000000000000000000000000600052602260045260246000fd5b600060028204905060018216806200028257607f821691505b6020821081036200029857620002976200023a565b5b50919050565b60008190508160005260206000209050919050565b60006020601f8301049050919050565b600082821b905092915050565b600060088302620003027fffffffffffffffffffffffffffffffffffffffffffffffffffffffffffffffff82620002c3565b6200030e8683620002c3565b95508019841693508086168417925050509392505050565b6000819050919050565b6000819050919050565b60006200035b620003556200034f8462000326565b62000330565b62000326565b9050919050565b6000819050919050565b62000377836200033a565b6200038f620003868262000362565b848454620002d0565b825550505050565b600090565b620003a662000397565b620003b38184846200036c565b505050565b5b81811015620003db57620003cf6000826200039c565b600181019050620003b9565b5050565b601f8211156200042a57620003f4816200029e565b620003ff84620002b3565b810160208510156200040f578190505b620004276200041e85620002b3565b830182620003b8565b50505b505050565b600082821c905092915050565b60006200044f600019846008026200042f565b1980831691505092915050565b60006200046a83836200043c565b9150826002028217905092915050565b620004858262000200565b67ffffffffffffffff811115620004a157620004a06200020b565b5b620004ad825462000269565b620004ba828285620003df565b600060209050601f831160018114620004f25760008415620004dd578287015190505b620004e985826200045c565b86555062000559565b601f19841662000502866200029e565b60005b828110156200052c5784890151825560018201915060208501945060208101905062000505565b868310156200054c578489015162000548601f8916826200043c565b8355505b6001600288020188555050505b505050505050565b600073ffffffffffffffffffffffffffffffffffffffff82169050919050565b60006200058e8262000561565b9050919050565b620005a08162000581565b82525050565b6000602082019050620005bd600083018462000595565b92915050565b61453380620005d36000396000f3fe608060405234801561001057600080fd5b50600436106101165760003560e01c8063715018a6116100a2578063b88d4fde11610071578063b88d4fde146102cb578063c87b56dd146102e7578063d082e38114610317578063e985e9c514610335578063f2fde38b1461036557610116565b8063715018a6146102695780638da5cb5b1461027357806395d89b4114610291578063a22cb465146102af57610116565b806323b872dd116100e957806323b872dd146101b557806342842e0e146101d15780636352211e146101ed5780636a6278421461021d57806370a082311461023957610116565b806301ffc9a71461011b57806306fdde031461014b578063081812fc14610169578063095ea7b314610199575b600080fd5b61013560048036038101906101309190611a24565b610381565b6040516101429190611a6c565b60405180910390f35b610153610463565b6040516101609190611b17565b60405180910390f35b610183600480360381019061017e9190611b6f565b6104f5565b6040516101909190611bdd565b60405180910390f35b6101b360048036038101906101ae9190611c24565b610511565b005b6101cf60048036038101906101ca9190611c64565b610527565b005b6101eb60048036038101906101e69190611c64565b610629565b005b61020760048036038101906102029190611b6f565b610649565b6040516102149190611bdd565b60405180910390f35b61023760048036038101906102329190611cb7565b61065b565b005b610253600480360381019061024e9190611cb7565b610687565b6040516102609190611cf3565b60405180910390f35b610271610741565b005b61027b610755565b6040516102889190611bdd565b60405180910390f35b61029961077f565b6040516102a69190611b17565b60405180910390f35b6102c960048036038101906102c49190611d3a565b610811565b005b6102e560048036038101906102e09190611eaf565b610827565b005b61030160048036038101906102fc9190611b6f565b61084c565b60405161030e9190611b17565b60405180910390f35b61031f6108c1565b60405161032c9190611cf3565b60405180910390f35b61034f600480360381019061034a9190611f32565b6108c7565b60405161035c9190611a6c565b60405180910390f35b61037f600480360381019061037a9190611cb7565b61095b565b005b60007f80ac58cd000000000000000000000000000000000000000000000000000000007bffffffffffffffffffffffffffffffffffffffffffffffffffffffff1916827bffffffffffffffffffffffffffffffffffffffffffffffffffffffff1916148061044c57507f5b5e139f000000000000000000000000000000000000000000000000000000007bffffffffffffffffffffffffffffffffffffffffffffffffffffffff1916827bffffffffffffffffffffffffffffffffffffffffffffffffffffffff1916145b8061045c575061045b826109e1565b5b9050919050565b60606000805461047290611fa1565b80601f016020809104026020016040519081016040528092919081815260200182805461049e90611fa1565b80156104eb5780601f106104c0576101008083540402835291602001916104eb565b820191906000526020600020905b8154815290600101906020018083116104ce57829003601f168201915b5050505050905090565b600061050082610a4b565b5061050a82610ad3565b9050919050565b610523828261051e610b10565b610b18565b5050565b600073ffffffffffffffffffffffffffffffffffffffff168273ffffffffffffffffffffffffffffffffffffffff16036105995760006040517f64a0ae920000000000000000000000000000000000000000000000000000000081526004016105909190611bdd565b60405180910390fd5b60006105ad83836105a8610b10565b610b2a565b90508373ffffffffffffffffffffffffffffffffffffffff168173ffffffffffffffffffffffffffffffffffffffff1614610623578382826040517f64283d7b00000000000000000000000000000000000000000000000000000000815260040161061a93929190611fd2565b60405180910390fd5b50505050565b61064483838360405180602001604052806000815250610827565b505050565b600061065482610a4b565b9050919050565b610663610d44565b61066f81600754610dcb565b600160075461067e9190612038565b60078190555050565b60008073ffffffffffffffffffffffffffffffffffffffff168273ffffffffffffffffffffffffffffffffffffffff16036106fa5760006040517f89c62b640000000000000000000000000000000000000000000000000000000081526004016106f19190611bdd565b60405180910390fd5b600360008373ffffffffffffffffffffffffffffffffffffffff1673ffffffffffffffffffffffffffffffffffffffff168152602001908152602001600020549050919050565b610749610d44565b6107536000610de9565b565b6000600660009054906101000a900473ffffffffffffffffffffffffffffffffffffffff16905090565b60606001805461078e90611fa1565b80601f01602080910402602001604051908101604052809291908181526020018280546107ba90611fa1565b80156108075780601f106107dc57610100808354040283529160200191610807565b820191906000526020600020905b8154815290600101906020018083116107ea57829003601f168201915b5050505050905090565b61082361081c610b10565b8383610eaf565b5050565b610832848484610527565b61084661083d610b10565b8585858561101e565b50505050565b6060600061086061085b6111cf565b6111f4565b9050600061089661087085611221565b836040516020016108829291906121d8565b6040516020818303038152906040526111f4565b9050806040516020016108a99190612269565b60405160208183030381529060405292505050919050565b60075481565b6000600560008473ffffffffffffffffffffffffffffffffffffffff1673ffffffffffffffffffffffffffffffffffffffff16815260200190815260200160002060008373ffffffffffffffffffffffffffffffffffffffff1673ffffffffffffffffffffffffffffffffffffffff16815260200190815260200160002060009054906101000a900460ff16905092915050565b610963610d44565b600073ffffffffffffffffffffffffffffffffffffffff168173ffffffffffffffffffffffffffffffffffffffff16036109d55760006040517f1e4fbdf70000000000000000000000000000000000000000000000000000000081526004016109cc9190611bdd565b60405180910390fd5b6109de81610de9565b50565b60007f01ffc9a7000000000000000000000000000000000000000000000000000000007bffffffffffffffffffffffffffffffffffffffffffffffffffffffff1916827bffffffffffffffffffffffffffffffffffffffffffffffffffffffff1916149050919050565b600080610a5783611380565b9050600073ffffffffffffffffffffffffffffffffffffffff168173ffffffffffffffffffffffffffffffffffffffff1603610aca57826040517f7e273289000000000000000000000000000000000000000000000000000000008152600401610ac19190611cf3565b60405180910390fd5b80915050919050565b60006004600083815260200190815260200160002060009054906101000a900473ffffffffffffffffffffffffffffffffffffffff169050919050565b600033905090565b610b2583838360016113bd565b505050565b600080610b3684611380565b9050600073ffffffffffffffffffffffffffffffffffffffff168373ffffffffffffffffffffffffffffffffffffffff1614610b7857610b77818486611582565b5b600073ffffffffffffffffffffffffffffffffffffffff168173ffffffffffffffffffffffffffffffffffffffff1614610c0957610bba6000856000806113bd565b6001600360008373ffffffffffffffffffffffffffffffffffffffff1673ffffffffffffffffffffffffffffffffffffffff168152602001908152602001600020600082825403925050819055505b600073ffffffffffffffffffffffffffffffffffffffff168573ffffffffffffffffffffffffffffffffffffffff1614610c8c576001600360008773ffffffffffffffffffffffffffffffffffffffff1673ffffffffffffffffffffffffffffffffffffffff168152602001908152602001600020600082825401925050819055505b846002600086815260200190815260200160002060006101000a81548173ffffffffffffffffffffffffffffffffffffffff021916908373ffffffffffffffffffffffffffffffffffffffff160217905550838573ffffffffffffffffffffffffffffffffffffffff168273ffffffffffffffffffffffffffffffffffffffff167fddf252ad1be2c89b69c2b068fc378daa952ba7f163c4a11628f55a4df523b3ef60405160405180910390a4809150509392505050565b610d4c610b10565b73ffffffffffffffffffffffffffffffffffffffff16610d6a610755565b73ffffffffffffffffffffffffffffffffffffffff1614610dc957610d8d610b10565b6040517f118cdaa7000000000000000000000000000000000000000000000000000000008152600401610dc09190611bdd565b60405180910390fd5b565b610de5828260405180602001604052806000815250611646565b5050565b6000600660009054906101000a900473ffffffffffffffffffffffffffffffffffffffff16905081600660006101000a81548173ffffffffffffffffffffffffffffffffffffffff021916908373ffffffffffffffffffffffffffffffffffffffff1602179055508173ffffffffffffffffffffffffffffffffffffffff168173ffffffffffffffffffffffffffffffffffffffff167f8be0079c531659141344cd1fd0a4f28419497f9722a3daafe3b4186f6b6457e060405160405180910390a35050565b600073ffffffffffffffffffffffffffffffffffffffff168273ffffffffffffffffffffffffffffffffffffffff1603610f2057816040517f5b08ba18000000000000000000000000000000000000000000000000000000008152600401610f179190611bdd565b60405180910390fd5b80600560008573ffffffffffffffffffffffffffffffffffffffff1673ffffffffffffffffffffffffffffffffffffffff16815260200190815260200160002060008473ffffffffffffffffffffffffffffffffffffffff1673ffffffffffffffffffffffffffffffffffffffff16815260200190815260200160002060006101000a81548160ff0219169083151502179055508173ffffffffffffffffffffffffffffffffffffffff168373ffffffffffffffffffffffffffffffffffffffff167f17307eab39ab6107e8899845ad3d59bd9653f200f220920489ca2b5937696c31836040516110119190611a6c565b60405180910390a3505050565b60008373ffffffffffffffffffffffffffffffffffffffff163b11156111c8578273ffffffffffffffffffffffffffffffffffffffff1663150b7a02868685856040518563ffffffff1660e01b815260040161107d94939291906122e0565b6020604051808303816000875af19250505080156110b957506040513d601f19601f820116820180604052508101906110b69190612341565b60015b61113d573d80600081146110e9576040519150601f19603f3d011682016040523d82523d6000602084013e6110ee565b606091505b50600081510361113557836040517f64a0ae9200000000000000000000000000000000000000000000000000000000815260040161112c9190611bdd565b60405180910390fd5b805160208201fd5b63150b7a0260e01b7bffffffffffffffffffffffffffffffffffffffffffffffffffffffff1916817bffffffffffffffffffffffffffffffffffffffffffffffffffffffff1916146111c657836040517f64a0ae920000000000000000000000000000000000000000000000000000000081526004016111bd9190611bdd565b60405180910390fd5b505b5050505050565b60606040516020016111e09061403a565b604051602081830303815290604052905090565b606061121a826040518060600160405280604081526020016144be60409139600161166a565b9050919050565b606060008203611268576040518060400160405280600181526020017f3000000000000000000000000000000000000000000000000000000000000000815250905061137b565b600082905060005b6000821461129a57808061128390614321565b915050600a826112939190614398565b9150611270565b60008167ffffffffffffffff8111156112b6576112b5611d84565b5b6040519080825280601f01601f1916602001820160405280156112e85781602001600182028036833780820191505090505b5090505b600085146113745781806112ff906143c9565b925050600a8561130f91906143f2565b603061131b9190612038565b60f81b81838151811061133157611330614423565b5b60200101907effffffffffffffffffffffffffffffffffffffffffffffffffffffffffffff1916908160001a905350600a8561136d9190614398565b94506112ec565b8093505050505b919050565b60006002600083815260200190815260200160002060009054906101000a900473ffffffffffffffffffffffffffffffffffffffff169050919050565b80806113f65750600073ffffffffffffffffffffffffffffffffffffffff168273ffffffffffffffffffffffffffffffffffffffff1614155b1561152a57600061140684610a4b565b9050600073ffffffffffffffffffffffffffffffffffffffff168373ffffffffffffffffffffffffffffffffffffffff161415801561147157508273ffffffffffffffffffffffffffffffffffffffff168173ffffffffffffffffffffffffffffffffffffffff1614155b8015611484575061148281846108c7565b155b156114c657826040517fa9fbf51f0000000000000000000000000000000000000000000000000000000081526004016114bd9190611bdd565b60405180910390fd5b811561152857838573ffffffffffffffffffffffffffffffffffffffff168273ffffffffffffffffffffffffffffffffffffffff167f8c5be1e5ebec7d5bd14f71427d1e84f3dd0314c0f7b2291e5b200ac8c7c3b92560405160405180910390a45b505b836004600085815260200190815260200160002060006101000a81548173ffffffffffffffffffffffffffffffffffffffff021916908373ffffffffffffffffffffffffffffffffffffffff16021790555050505050565b61158d8383836117fe565b61164157600073ffffffffffffffffffffffffffffffffffffffff168373ffffffffffffffffffffffffffffffffffffffff160361160257806040517f7e2732890000000000000000000000000000000000000000000000000000000081526004016115f99190611cf3565b60405180910390fd5b81816040517f177e802f000000000000000000000000000000000000000000000000000000008152600401611638929190614452565b60405180910390fd5b505050565b61165083836118bf565b61166561165b610b10565b600085858561101e565b505050565b6060600084510361168c576040518060200160405280600081525090506117f7565b6000826116be5760036002865160046116a5919061447b565b6116af9190612038565b6116b99190614398565b6116e5565b6003600286516116ce9190612038565b6116d89190614398565b60046116e4919061447b565b5b905060008167ffffffffffffffff81111561170357611702611d84565b5b6040519080825280601f01601f1916602001820160405280156117355781602001600182028036833780820191505090505b50905060018501602082018788518901602081018051600082525b828410156117ab576003840193508351603f8160121c168701518653600186019550603f81600c1c168701518653600186019550603f8160061c168701518653600186019550603f8116870151865360018601955050611750565b80825289156117eb5760038c5106600181146117ce57600281146117e1576117e9565b603d6001870353603d60028703536117e9565b603d60018703535b505b50505050505080925050505b9392505050565b60008073ffffffffffffffffffffffffffffffffffffffff168373ffffffffffffffffffffffffffffffffffffffff16141580156118b657508273ffffffffffffffffffffffffffffffffffffffff168473ffffffffffffffffffffffffffffffffffffffff161480611877575061187684846108c7565b5b806118b557508273ffffffffffffffffffffffffffffffffffffffff1661189d83610ad3565b73ffffffffffffffffffffffffffffffffffffffff16145b5b90509392505050565b600073ffffffffffffffffffffffffffffffffffffffff168273ffffffffffffffffffffffffffffffffffffffff16036119315760006040517f64a0ae920000000000000000000000000000000000000000000000000000000081526004016119289190611bdd565b60405180910390fd5b600061193f83836000610b2a565b9050600073ffffffffffffffffffffffffffffffffffffffff168173ffffffffffffffffffffffffffffffffffffffff16146119b35760006040517f73c6ac6e0000000000000000000000000000000000000000000000000000000081526004016119aa9190611bdd565b60405180910390fd5b505050565b6000604051905090565b600080fd5b600080fd5b60007fffffffff0000000000000000000000000000000000000000000000000000000082169050919050565b611a01816119cc565b8114611a0c57600080fd5b50565b600081359050611a1e816119f8565b92915050565b600060208284031215611a3a57611a396119c2565b5b6000611a4884828501611a0f565b91505092915050565b60008115159050919050565b611a6681611a51565b82525050565b6000602082019050611a816000830184611a5d565b92915050565b600081519050919050565b600082825260208201905092915050565b60005b83811015611ac1578082015181840152602081019050611aa6565b60008484015250505050565b6000601f19601f8301169050919050565b6000611ae982611a87565b611af38185611a92565b9350611b03818560208601611aa3565b611b0c81611acd565b840191505092915050565b60006020820190508181036000830152611b318184611ade565b905092915050565b6000819050919050565b611b4c81611b39565b8114611b5757600080fd5b50565b600081359050611b6981611b43565b92915050565b600060208284031215611b8557611b846119c2565b5b6000611b9384828501611b5a565b91505092915050565b600073ffffffffffffffffffffffffffffffffffffffff82169050919050565b6000611bc782611b9c565b9050919050565b611bd781611bbc565b82525050565b6000602082019050611bf26000830184611bce565b92915050565b611c0181611bbc565b8114611c0c57600080fd5b50565b600081359050611c1e81611bf8565b92915050565b60008060408385031215611c3b57611c3a6119c2565b5b6000611c4985828601611c0f565b9250506020611c5a85828601611b5a565b9150509250929050565b600080600060608486031215611c7d57611c7c6119c2565b5b6000611c8b86828701611c0f565b9350506020611c9c86828701611c0f565b9250506040611cad86828701611b5a565b9150509250925092565b600060208284031215611ccd57611ccc6119c2565b5b6000611cdb84828501611c0f565b91505092915050565b611ced81611b39565b82525050565b6000602082019050611d086000830184611ce4565b92915050565b611d1781611a51565b8114611d2257600080fd5b50565b600081359050611d3481611d0e565b92915050565b60008060408385031215611d5157611d506119c2565b5b6000611d5f85828601611c0f565b9250506020611d7085828601611d25565b9150509250929050565b600080fd5b600080fd5b7f4e487b7100000000000000000000000000000000000000000000000000000000600052604160045260246000fd5b611dbc82611acd565b810181811067ffffffffffffffff82111715611ddb57611dda611d84565b5b80604052505050565b6000611dee6119b8565b9050611dfa8282611db3565b919050565b600067ffffffffffffffff821115611e1a57611e19611d84565b5b611e2382611acd565b9050602081019050919050565b82818337600083830152505050565b6000611e52611e4d84611dff565b611de4565b905082815260208101848484011115611e6e57611e6d611d7f565b5b611e79848285611e30565b509392505050565b600082601f830112611e9657611e95611d7a565b5b8135611ea6848260208601611e3f565b91505092915050565b60008060008060808587031215611ec957611ec86119c2565b5b6000611ed787828801611c0f565b9450506020611ee887828801611c0f565b9350506040611ef987828801611b5a565b925050606085013567ffffffffffffffff811115611f1a57611f196119c7565b5b611f2687828801611e81565b91505092959194509250565b60008060408385031215611f4957611f486119c2565b5b6000611f5785828601611c0f565b9250506020611f6885828601611c0f565b9150509250929050565b7f4e487b7100000000000000000000000000000000000000000000000000000000600052602260045260246000fd5b60006002820490506001821680611fb957607f821691505b602082108103611fcc57611fcb611f72565b5b50919050565b6000606082019050611fe76000830186611bce565b611ff46020830185611ce4565b6120016040830184611bce565b949350505050565b7f4e487b7100000000000000000000000000000000000000000000000000000000600052601160045260246000fd5b600061204382611b39565b915061204e83611b39565b925082820190508082111561206657612065612009565b5b92915050565b600081905092915050565b7f7b226e616d65223a20224f6d6f626f694f6e636861696e4e4654202300000000600082015250565b60006120ad601c8361206c565b91506120b882612077565b601c82019050919050565b60006120ce82611a87565b6120d8818561206c565b93506120e8818560208601611aa3565b80840191505092915050565b7f222c20226465736372697074696f6e223a2022206f6e636861696e204e46542060008201527f6279204f6d6f626f69222c2022696d616765223a2022646174613a696d61676560208201527f2f7376672b786d6c3b6261736536342c00000000000000000000000000000000604082015250565b600061217660508361206c565b9150612181826120f4565b605082019050919050565b7f227d000000000000000000000000000000000000000000000000000000000000600082015250565b60006121c260028361206c565b91506121cd8261218c565b600282019050919050565b60006121e3826120a0565b91506121ef82856120c3565b91506121fa82612169565b915061220682846120c3565b9150612211826121b5565b91508190509392505050565b7f646174613a6170706c69636174696f6e2f6a736f6e3b6261736536342c000000600082015250565b6000612253601d8361206c565b915061225e8261221d565b601d82019050919050565b600061227482612246565b915061228082846120c3565b915081905092915050565b600081519050919050565b600082825260208201905092915050565b60006122b28261228b565b6122bc8185612296565b93506122cc818560208601611aa3565b6122d581611acd565b840191505092915050565b60006080820190506122f56000830187611bce565b6123026020830186611bce565b61230f6040830185611ce4565b818103606083015261232181846122a7565b905095945050505050565b60008151905061233b816119f8565b92915050565b600060208284031215612357576123566119c2565b5b60006123658482850161232c565b91505092915050565b7f3c73766720786d6c6e733d22687474703a2f2f7777772e77332e6f72672f323060008201527f30302f737667222076696577426f783d2230203020333530203335302220776960208201527f6474683d2233353022206865696768743d22333530223e000000000000000000604082015250565b60006123f060578361206c565b91506123fb8261236e565b605782019050919050565b7f3c646566733e0000000000000000000000000000000000000000000000000000815250565b7f3c72616469616c4772616469656e742069643d226267222063783d223530252260008201527f2063793d223530252220723d22373025223e0000000000000000000000000000602082015250565b600061248860328361206c565b91506124938261242c565b603282019050919050565b7f3c73746f70206f66667365743d223025222073746f702d636f6c6f723d22233060008201527f6630633239222f3e000000000000000000000000000000000000000000000000602082015250565b60006124fa60288361206c565b91506125058261249e565b602882019050919050565b7f3c73746f70206f66667365743d22353025222073746f702d636f6c6f723d222360008201527f333032623633222f3e0000000000000000000000000000000000000000000000602082015250565b600061256c60298361206c565b915061257782612510565b602982019050919050565b7f3c73746f70206f66667365743d2231303025222073746f702d636f6c6f723d2260008201527f23323432343365222f3e00000000000000000000000000000000000000000000602082015250565b60006125de602a8361206c565b91506125e982612582565b602a82019050919050565b7f3c2f72616469616c4772616469656e743e000000000000000000000000000000815250565b7f3c72616469616c4772616469656e742069643d22676c6f77222063783d22353060008201527f25222063793d223530252220723d22353025223e000000000000000000000000602082015250565b600061267660348361206c565b91506126818261261a565b603482019050919050565b7f3c73746f70206f66667365743d223025222073746f702d636f6c6f723d22236660008201527f3937333136222073746f702d6f7061636974793d22302e33222f3e0000000000602082015250565b60006126e8603b8361206c565b91506126f38261268c565b603b82019050919050565b7f3c73746f70206f66667365743d2231303025222073746f702d636f6c6f723d2260008201527f23663937333136222073746f702d6f7061636974793d2230222f3e0000000000602082015250565b600061275a603b8361206c565b9150612765826126fe565b603b82019050919050565b7f3c6c696e6561724772616469656e742069643d2272696e6731222078313d223060008201527f25222079313d223025222078323d2231303025222079323d2231303025223e00602082015250565b60006127cc603f8361206c565b91506127d782612770565b603f82019050919050565b7f3c73746f70206f66667365743d223025222073746f702d636f6c6f723d22236660008201527f3937333136222f3e000000000000000000000000000000000000000000000000602082015250565b600061283e60288361206c565b9150612849826127e2565b602882019050919050565b7f3c73746f70206f66667365743d2231303025222073746f702d636f6c6f723d2260008201527f23656334383939222f3e00000000000000000000000000000000000000000000602082015250565b60006128b0602a8361206c565b91506128bb82612854565b602a82019050919050565b7f3c2f6c696e6561724772616469656e743e000000000000000000000000000000815250565b7f3c6c696e6561724772616469656e742069643d2272696e6732222078313d223160008201527f303025222079313d223025222078323d223025222079323d2231303025223e00602082015250565b6000612948603f8361206c565b9150612953826128ec565b603f82019050919050565b7f3c73746f70206f66667365743d223025222073746f702d636f6c6f723d22233360008201527f6238326636222f3e000000000000000000000000000000000000000000000000602082015250565b60006129ba60288361206c565b91506129c58261295e565b602882019050919050565b7f3c73746f70206f66667365743d2231303025222073746f702d636f6c6f723d2260008201527f23386235636636222f3e00000000000000000000000000000000000000000000602082015250565b6000612a2c602a8361206c565b9150612a37826129d0565b602a82019050919050565b7f3c6c696e6561724772616469656e742069643d2274657874477261642220783160008201527f3d223025222079313d223025222078323d2231303025222079323d223025223e602082015250565b6000612a9e60408361206c565b9150612aa982612a42565b604082019050919050565b7f3c66696c7465722069643d22676c6f772d66696c746572223e00000000000000815250565b7f3c6665476175737369616e426c757220737464446576696174696f6e3d22332260008201527f20726573756c743d22626c7572222f3e00000000000000000000000000000000602082015250565b6000612b3660308361206c565b9150612b4182612ada565b603082019050919050565b7f3c66654d657267653e3c66654d657267654e6f646520696e3d22626c7572222f60008201527f3e3c66654d657267654e6f646520696e3d22536f75726365477261706869632260208201527f2f3e3c2f66654d657267653e0000000000000000000000000000000000000000604082015250565b6000612bce604c8361206c565b9150612bd982612b4c565b604c82019050919050565b7f3c2f66696c7465723e0000000000000000000000000000000000000000000000815250565b7f3c2f646566733e00000000000000000000000000000000000000000000000000815250565b7f3c726563742077696474683d2233353022206865696768743d2233353022206660008201527f696c6c3d2275726c2823626729222072783d223230222f3e0000000000000000602082015250565b6000612c8c60388361206c565b9150612c9782612c30565b603882019050919050565b7f3c636972636c652063783d22313735222063793d223137352220723d2231323060008201527f222066696c6c3d2275726c2823676c6f7729222f3e0000000000000000000000602082015250565b6000612cfe60358361206c565b9150612d0982612ca2565b603582019050919050565b7f3c636972636c652063783d22313735222063793d223137352220723d2231333060008201527f222066696c6c3d226e6f6e6522207374726f6b653d2275726c282372696e673160208201527f2922207374726f6b652d77696474683d22312e3522207374726f6b652d64617360408201527f6861727261793d2236203422206f7061636974793d22302e36222f3e00000000606082015250565b6000612dbc607c8361206c565b9150612dc782612d14565b607c82019050919050565b7f3c706f6c79676f6e20706f696e74733d223137352c3630203234352c3130322060008201527f3234352c313838203137352c323330203130352c313838203130352c3130322260208201527f2066696c6c3d226e6f6e6522207374726f6b653d2275726c282372696e67322960408201527f22207374726f6b652d77696474683d22312e3222206f7061636974793d22302e60608201527f35222f3e00000000000000000000000000000000000000000000000000000000608082015250565b6000612ea060848361206c565b9150612eab82612dd2565b608482019050919050565b7f3c706f6c79676f6e20706f696e74733d223137352c3830203233302c3131322060008201527f3233302c313738203137352c323130203132302c313738203132302c3131322260208201527f2066696c6c3d226e6f6e6522207374726f6b653d2275726c282372696e67312960408201527f22207374726f6b652d77696474683d22302e3822206f7061636974793d22302e60608201527f34222f3e00000000000000000000000000000000000000000000000000000000608082015250565b6000612f8460848361206c565b9150612f8f82612eb6565b608482019050919050565b7f3c636972636c652063783d22313735222063793d223135352220723d2235352260008201527f2066696c6c3d226e6f6e6522207374726f6b653d2275726c282372696e67312960208201527f22207374726f6b652d77696474683d2232222066696c7465723d2275726c282360408201527f676c6f772d66696c74657229222f3e0000000000000000000000000000000000606082015250565b6000613042606f8361206c565b915061304d82612f9a565b606f82019050919050565b7f3c636972636c652063783d22313735222063793d223135352220723d2234382260008201527f2066696c6c3d222330663063323922206f7061636974793d22302e38222f3e00602082015250565b60006130b4603f8361206c565b91506130bf82613058565b603f82019050919050565b7f3c7465787420783d223137352220793d223134382220666f6e742d66616d696c60008201527f793d2273657269662220666f6e742d73697a653d2232322220666f6e742d776560208201527f696768743d22626f6c64222066696c6c3d2275726c282374657874477261642960408201527f2220746578742d616e63686f723d226d6964646c65222066696c7465723d227560608201527f726c2823676c6f772d66696c74657229223e4f4d4f3c2f746578743e00000000608082015250565b6000613198609c8361206c565b91506131a3826130ca565b609c82019050919050565b7f3c7465787420783d223137352220793d223137302220666f6e742d66616d696c60008201527f793d226d6f6e6f73706163652220666f6e742d73697a653d2239222066696c6c60208201527f3d22233862356366362220746578742d616e63686f723d226d6964646c65222060408201527f6c65747465722d73706163696e673d2233223e544f4b454e3c2f746578743e00606082015250565b6000613256607f8361206c565b9150613261826131ae565b607f82019050919050565b7f3c636972636c652063783d22313735222063793d2239372220723d223322206660008201527f696c6c3d2223663937333136222066696c7465723d2275726c2823676c6f772d60208201527f66696c74657229222f3e00000000000000000000000000000000000000000000604082015250565b60006132ee604a8361206c565b91506132f98261326c565b604a82019050919050565b7f3c636972636c652063783d22313735222063793d223231332220723d2233222060008201527f66696c6c3d2223656334383939222066696c7465723d2275726c2823676c6f7760208201527f2d66696c74657229222f3e000000000000000000000000000000000000000000604082015250565b6000613386604b8361206c565b915061339182613304565b604b82019050919050565b7f3c636972636c652063783d22313231222063793d223132352220723d22322e3560008201527f222066696c6c3d2223336238326636222066696c7465723d2275726c2823676c60208201527f6f772d66696c74657229222f3e00000000000000000000000000000000000000604082015250565b600061341e604d8361206c565b91506134298261339c565b604d82019050919050565b7f3c636972636c652063783d22323239222063793d223132352220723d22322e3560008201527f222066696c6c3d2223386235636636222066696c7465723d2275726c2823676c60208201527f6f772d66696c74657229222f3e00000000000000000000000000000000000000604082015250565b60006134b6604d8361206c565b91506134c182613434565b604d82019050919050565b7f3c636972636c652063783d22313231222063793d223138352220723d22322e3560008201527f222066696c6c3d2223663937333136222066696c7465723d2275726c2823676c60208201527f6f772d66696c74657229222f3e00000000000000000000000000000000000000604082015250565b600061354e604d8361206c565b9150613559826134cc565b604d82019050919050565b7f3c636972636c652063783d22323239222063793d223138352220723d22322e3560008201527f222066696c6c3d2223656334383939222066696c7465723d2275726c2823676c60208201527f6f772d66696c74657229222f3e00000000000000000000000000000000000000604082015250565b60006135e6604d8361206c565b91506135f182613564565b604d82019050919050565b7f3c6c696e652078313d223230222079313d223230222078323d2235302220793260008201527f3d22323022207374726f6b653d222366393733313622207374726f6b652d776960208201527f6474683d22312e3522206f7061636974793d22302e36222f3e00000000000000604082015250565b600061367e60598361206c565b9150613689826135fc565b605982019050919050565b7f3c6c696e652078313d223230222079313d223230222078323d2232302220793260008201527f3d22353022207374726f6b653d222366393733313622207374726f6b652d776960208201527f6474683d22312e3522206f7061636974793d22302e36222f3e00000000000000604082015250565b600061371660598361206c565b915061372182613694565b605982019050919050565b7f3c6c696e652078313d22333330222079313d223230222078323d22333030222060008201527f79323d22323022207374726f6b653d222365633438393922207374726f6b652d60208201527f77696474683d22312e3522206f7061636974793d22302e36222f3e0000000000604082015250565b60006137ae605b8361206c565b91506137b98261372c565b605b82019050919050565b7f3c6c696e652078313d22333330222079313d223230222078323d22333330222060008201527f79323d22353022207374726f6b653d222365633438393922207374726f6b652d60208201527f77696474683d22312e3522206f7061636974793d22302e36222f3e0000000000604082015250565b6000613846605b8361206c565b9150613851826137c4565b605b82019050919050565b7f3c6c696e652078313d223230222079313d22333330222078323d22353022207960008201527f323d2233333022207374726f6b653d222333623832663622207374726f6b652d60208201527f77696474683d22312e3522206f7061636974793d22302e36222f3e0000000000604082015250565b60006138de605b8361206c565b91506138e98261385c565b605b82019050919050565b7f3c6c696e652078313d223230222079313d22333330222078323d22323022207960008201527f323d2233303022207374726f6b653d222333623832663622207374726f6b652d60208201527f77696474683d22312e3522206f7061636974793d22302e36222f3e0000000000604082015250565b6000613976605b8361206c565b9150613981826138f4565b605b82019050919050565b7f3c6c696e652078313d22333330222079313d22333330222078323d223330302260008201527f2079323d2233333022207374726f6b653d222338623563663622207374726f6b60208201527f652d77696474683d22312e3522206f7061636974793d22302e36222f3e000000604082015250565b6000613a0e605d8361206c565b9150613a198261398c565b605d82019050919050565b7f3c6c696e652078313d22333330222079313d22333330222078323d223333302260008201527f2079323d2233303022207374726f6b653d222338623563663622207374726f6b60208201527f652d77696474683d22312e3522206f7061636974793d22302e36222f3e000000604082015250565b6000613aa6605d8361206c565b9150613ab182613a24565b605d82019050919050565b7f3c7465787420783d223137352220793d223236382220666f6e742d66616d696c60008201527f793d226d6f6e6f73706163652220666f6e742d73697a653d223131222066696c60208201527f6c3d2275726c28237465787447726164292220746578742d616e63686f723d2260408201527f6d6964646c6522206c65747465722d73706163696e673d22342220666f6e742d60608201527f7765696768743d22626f6c64223e4f4d4f424f49204e46543c2f746578743e00608082015250565b6000613b8a609f8361206c565b9150613b9582613abc565b609f82019050919050565b7f3c636972636c652063783d223630222063793d2238302220723d22312e35222060008201527f66696c6c3d22776869746522206f7061636974793d22302e36222f3e00000000602082015250565b6000613bfc603c8361206c565b9150613c0782613ba0565b603c82019050919050565b7f3c636972636c652063783d22323930222063793d2237302220723d223122206660008201527f696c6c3d22776869746522206f7061636974793d22302e35222f3e0000000000602082015250565b6000613c6e603b8361206c565b9150613c7982613c12565b603b82019050919050565b7f3c636972636c652063783d223430222063793d223230302220723d22312e352260008201527f2066696c6c3d22776869746522206f7061636974793d22302e34222f3e000000602082015250565b6000613ce0603d8361206c565b9150613ceb82613c84565b603d82019050919050565b7f3c636972636c652063783d22333130222063793d223232302220723d2231222060008201527f66696c6c3d22776869746522206f7061636974793d22302e36222f3e00000000602082015250565b6000613d52603c8361206c565b9150613d5d82613cf6565b603c82019050919050565b7f3c636972636c652063783d223830222063793d223239302220723d22312e352260008201527f2066696c6c3d22776869746522206f7061636974793d22302e33222f3e000000602082015250565b6000613dc4603d8361206c565b9150613dcf82613d68565b603d82019050919050565b7f3c636972636c652063783d22323730222063793d223330302220723d2231222060008201527f66696c6c3d22776869746522206f7061636974793d22302e35222f3e00000000602082015250565b6000613e36603c8361206c565b9150613e4182613dda565b603c82019050919050565b7f3c636972636c652063783d22313030222063793d2235302220723d223122206660008201527f696c6c3d222366393733313622206f7061636974793d22302e37222f3e000000602082015250565b6000613ea8603d8361206c565b9150613eb382613e4c565b603d82019050919050565b7f3c636972636c652063783d22323530222063793d2234302220723d22312e352260008201527f2066696c6c3d222365633438393922206f7061636974793d22302e36222f3e00602082015250565b6000613f1a603f8361206c565b9150613f2582613ebe565b603f82019050919050565b7f3c636972636c652063783d22333230222063793d223135302220723d2231222060008201527f66696c6c3d222333623832663622206f7061636974793d22302e37222f3e0000602082015250565b6000613f8c603e8361206c565b9150613f9782613f30565b603e82019050919050565b7f3c636972636c652063783d223330222063793d223134302220723d22312e352260008201527f2066696c6c3d222338623563663622206f7061636974793d22302e35222f3e00602082015250565b6000613ffe603f8361206c565b915061400982613fa2565b603f82019050919050565b7f3c2f7376673e0000000000000000000000000000000000000000000000000000815250565b6000614045826123e3565b915061405082612406565b60068201915061405f8261247b565b915061406a826124ed565b91506140758261255f565b9150614080826125d1565b915061408b826125f4565b60118201915061409a82612669565b91506140a5826126db565b91506140b08261274d565b91506140bb826125f4565b6011820191506140ca826127bf565b91506140d582612831565b91506140e0826128a3565b91506140eb826128c6565b6011820191506140fa8261293b565b9150614105826129ad565b915061411082612a1f565b915061411b826128c6565b60118201915061412a82612a91565b915061413582612831565b9150614140826128a3565b915061414b826128c6565b60118201915061415a82612ab4565b60198201915061416982612b29565b915061417482612bc1565b915061417f82612be4565b60098201915061418e82612c0a565b60078201915061419d82612c7f565b91506141a882612cf1565b91506141b382612daf565b91506141be82612e93565b91506141c982612f77565b91506141d482613035565b91506141df826130a7565b91506141ea8261318b565b91506141f582613249565b9150614200826132e1565b915061420b82613379565b915061421682613411565b9150614221826134a9565b915061422c82613541565b9150614237826135d9565b915061424282613671565b915061424d82613709565b9150614258826137a1565b915061426382613839565b915061426e826138d1565b915061427982613969565b915061428482613a01565b915061428f82613a99565b915061429a82613b7d565b91506142a582613bef565b91506142b082613c61565b91506142bb82613cd3565b91506142c682613d45565b91506142d182613db7565b91506142dc82613e29565b91506142e782613e9b565b91506142f282613f0d565b91506142fd82613f7f565b915061430882613ff1565b915061431382614014565b600682019150819050919050565b600061432c82611b39565b91507fffffffffffffffffffffffffffffffffffffffffffffffffffffffffffffffff820361435e5761435d612009565b5b600182019050919050565b7f4e487b7100000000000000000000000000000000000000000000000000000000600052601260045260246000fd5b60006143a382611b39565b91506143ae83611b39565b9250826143be576143bd614369565b5b828204905092915050565b60006143d482611b39565b9150600082036143e7576143e6612009565b5b600182039050919050565b60006143fd82611b39565b915061440883611b39565b92508261441857614417614369565b5b828206905092915050565b7f4e487b7100000000000000000000000000000000000000000000000000000000600052603260045260246000fd5b60006040820190506144676000830185611bce565b6144746020830184611ce4565b9392505050565b600061448682611b39565b915061449183611b39565b925082820261449f81611b39565b915082820484148315176144b6576144b5612009565b5b509291505056fe4142434445464748494a4b4c4d4e4f505152535455565758595a6162636465666768696a6b6c6d6e6f707172737475767778797a303132333435363738392b2fa2646970667358221220b093b4685ae38cf71f8666f2cba86c141c22baa9e39fac764ac2783c9358b6b064736f6c63430008140033",
  "linkReferences": {},
  "deployedLinkReferences": {}
}